:10000000008000208D0A0000990A00009B0A000071
:100010009D0A00009D0A00009D0A000000000000EB
:100020000000000000000000000000009D0A000029
:100030009D0A0000000000009D0A00009D0A0000CB
:100040002C11000000000020000000000000002033
:10005000A41800000E4B01211A6942F03F021A61F8
:100060009C2283F8712083F86120002283F85020BD
:1000700083F8601083F862207B2283F863201A6F74
:1000800061F303021A674FF000425A60704700BFE5
:10009000009000402DE9F04F9446002900F09D802B
:1000A0004F4B1A68970602D41A68D60603D54FF04C
:1000B00080425A609A6020225A604A4F484B00267C
:1000C0004CF0F00A4FF001094FF400224FF4815B2D
:1000D000E0461C68E50408D51C6969F315541C61E9
:1000E000C3F840A05A60C3F808B01D6815F48075C5
:1000F00005D04FF488749C6000296AD10125DFF88F
:10010000E0C0DCF80040A40544BF4FF400749C60DC
:100110001C68640516D551B11C6C013900F8014BFF
:1001200005D002245C604FF480245C6004E002216E
:1001300099601021596000214FF480649C604FF455
:1001400000749C601C68240517D51C68A4070CD596
:1001500059B1B8F1000F02D04FF4802406E010F836
:10016000014B01391C645A6001E010245C604FF4BB
:1001700000649C604FF400749C60D3F800C0184C7D
:100180001CF4003F06D04FF40033A3604FF08043CF
:10019000636006E0D3F800C01CF4005C03D04FF4A9
:1001A0000053A3600EE03C6814F4803F05D0013694
:1001B000F6B2022EC7F808C004D8002D89D000205E
:1001C000BDE8F08F002D0CBF4FF0FF300020BDE8E0
:1001D000F08F4FF0FF30BDE8F08F0846BDE8F08F9C
:1001E0000090004010E000E02DE9F7430646894604
:1001F000684606210122FFF74DFF00284AD19DF8ED
:1002000000303A2B46D1254C042262603022A26095
:10021000102262604FF4007262604FF4807262607C
:100220000322626023619DF80130304623619DF80E
:100230000230012223619DF80350256143EA052520
:100240004D4528BF4D4629469DF805809DF8047010
:10025000FFF720FF18B11DE0335C01302361A84295
:10026000FAD1236947EA0827BB4206D0FF238DF85D
:10027000003068460121002204E000228DF80020B1
:1002800068460121FFF706FF002814BF4FF0FF303A
:10029000002001E04FF0FF30BDE8FE830080024007
:1002A000254B042273B55A6030229A6010225A609E
:1002B0004FF400725A604FF480725A6003225A6001
:1002C0003A260024C1F307220546C8B28DF8006023
:1002D0008DF801408DF802008DF803201E611C612D
:1002E00018611A6102E02A5D01341A618C42FAD168
:1002F0001B6900228DF8043068461B0A06218DF820
:100300000530FFF7C7FE024690B928462146FFF7A1
:10031000C1FE68B9012168460A46FFF7BBFE38B93D
:100320009DF80000FF280CBF4FF0FF30002001E0D7
:100330004FF0FF307CBD00BF008002400D4B1A69BA
:10034000D20715D51A69900712D41B6913F004025D
:100350000ED1094B4FF4200159609A6005221A60B2
:100360001968054AC903FBD50023136053609360E5
:1003700000F054BB60D0024010E000E070B50446CD
:1003800000F0ACF900F020FD974A984B24B10A2107
:10039000116007221A6002E0022111601C60944A79
:1003A00000231360934A904C1360934A934D13605B
:1003B0002368032B12D1924E0721304600F064FDD2
:1003C000A8B13378032B06D000239A5D5A55013328
:1003D000072BFAD108E00122864B0CE0874840F257
:1003E000074100F051FD10B10122814B03E00A23C7
:1003F00023607E4B10221A607D4B1A68FAB12A786E
:10040000052A08D100221A607C48012100F002FE72
:100410002B78236007E0072A0BD100221A60774867
:10042000302100F0F7FD0028C2D10A2323601022FA
:1004300045E1082A03D100221A6000F045FC236838
:10044000023B082BB4D801A252F823F0710400003B
:1004500003050000B10300005D0500008F050000EA
:10046000B1030000B10300000D060000ED04000020
:100470005F4B1A68002A9BD02A78032A00F0068175
:10048000012A10D100221A60B5F805105D4800F06D
:100490002FF9564B186020B903232360564B186080
:1004A00086E70A2368E0022A82D1574E00221A60AA
:1004B0003260B5F801303BB94F4A524813604FF4EF
:1004C000806100F029FA30604F4E4E48316800F0EC
:1004D000A1FD3368B3F5806F444B03D1092222603C
:1004E0000022C4E0022222600022E9E0404B1A68A8
:1004F000002A3FF45DAF2A78032A00F0C780042A5F
:10050000D7E03C4B1A68F2B13D4A1278032A1AD15F
:1005100000221A60384B1B6813B900F029F904E077
:10052000B5F80510374800F047F9304B2F4E1860EA
:10053000314B1A6801321A603368002B14BF0A234A
:100540000523236034E02A4A1368002B3FF430AFC0
:100550002B78062B7FF42CAF00233FE0244B1A6846
:10056000002A3FF425AF2A78012A09D100221A6017
:10057000B5F8053013B10323236019E70623FBE721
:10058000062A00F09880032A7FF412AF7EE0184B11
:100590001A68EAB12A78032A1AD100221A6000F0F8
:1005A0005DF9124E3060002814BF0A20022020603E
:1005B0001248062100F02EFD2B7833602B79236042
:1005C00000287FF4F5AE0A23236010233360EFE6A2
:1005D0002B78062B7FF4ECAE054A00231360022231
:1005E0002260024A1360E3E60400002014000020A9
:1005F00024040020280400201000002018000020FF
:10060000080000201F000020200400202D4B1A6845
:10061000002A3FF4CDAE2A78022A35D100222A4E94
:100620001A602A4B3260B5F801201B689A4206D145
:1006300027484FF4806100F0B1F9306004E00A23EC
:100640002360244B08221A602148316800F0E2FC44
:1006500020B90A2323601F4B10221A601A4B1B6813
:10066000B3F5806F08D1092323601A4B00221A606A
:10067000164B1A68013223E023680A2B3FF498AE28
:100680000223236000221AE0032A11D100221A60FB
:100690001148062100F0BEFC2A780E4B1A602A7918
:1006A000226000287FF484AE0A222260102207E034
:1006B000062A7FF47DAE00221A6002232360054BD8
:1006C0001A6075E624040020200400201000002099
:1006D0001F000020140000201800002008B500F0C2
:1006E00027FB024B4FF0FF321A6008BD7C0400204C
:1006F000B1F5806F10B52FD119490022845C184BD9
:1007000054540132502AF9D11A88B2F5807F23D18E
:10071000144A196B1268A2F5015291421CD8DA7D75
:10072000332A19D11A7E552A16D15A7E312A13D16D
:10073000996B0D4A0A400D498A420DD11A6CB2F5E7
:10074000005F09D15A6CB2F5806F07D1986CD96CF3
:1007500000F0D6FA002010BD022010BD022010BD0E
:100760002C04002088180020FF0000FF5A0000A57C
:1007700038B50E4D0E4C0121284600F011FB2068C3
:100780000121103800F00CFB2B68013304D12368E1
:1007900053F8103C013303D000F0C0FA052038BDF7
:1007A000044B4FF400521A60002038BDFCFF0300D8
:1007B000881800207C040020B1F5806F70B50546D4
:1007C00003D000F0ABFA022070BD214B1868214B1A
:1007D0001B6B03F50053984203D21F4A12689042E4
:1007E00003D300F09BFA082070BD00F580629A42A6
:1007F0008CBFC0EB03040C46012100F0D1FA144B6E
:1008000019680B4601F5806207E053F8040B0130CC
:1008100003D000F083FA052070BD9342F5D3224641
:100820000123284600F092FA094900230A6808E0EB
:100830009E5CE85C864203D000F070FA072070BD31
:100840000133A342F4D102F580620A60002070BD3A
:100850007C0400202C0400208818002038B52A4B86
:100860001D6B00F061F9294B1B68A3F501539D42F4
:100870003ED805F5FE553F3541F6FF7403E014F808
:10088000010F00F015FAAC42F9D100F017FA1E4C36
:10089000636B98422CD11D4D3822296801234039C1
:1008A000204600F053FA1A490422012304F13C00C7
:1008B00000F04CFA29680123083904F138000422B9
:1008C00000F044FA2968002358181D5D10F8400C08
:1008D0000D4A85420CD10133382BF5D10C4B1868E9
:1008E000D36B984204D151F8081C936B994203D002
:1008F00000F014FA072038BD064B4FF0FF321A60A3
:1009000000F00CFA002038BD2C04002088180020CC
:10091000FCFF03007C0400201C4A03461C4870B501
:100920001468002214F8405C9D5414F8405C0134B3
:10093000155401323C2AF5D1164D15482C789C549B
:1009400015F8016B124C16540132402AF6D14FF4BF
:10095000005020644FF480606064105D0C4D98542A
:100960000132482AF9D1A520F122EA64A864DA64A8
:1009700098645022002001E0985401328A42FBD34F
:10098000054B4FF400521A60084670BD88180020CD
:100990002C040020FCFF03007C04002003461A48BE
:1009A00030B51A4A846B2240194CA24227D1026BFF
:1009B00018480068A0F50150824220D8164C02F574
:1009C0000052206890421AD80D18954202D9121A86
:1009D00001D116E00A46002003E02568455D1D545C
:1009E00001309042F9D11046FF2401E01C5401303F
:1009F0008842FBD3084B186812181A6002E00021E5
:100A000000E01146084630BD2C040020FF0000FF26
:100A10005A0000A5881800207C04002070470000C0
:100A20000248D0F800D0D0F804F070470020000051
:100A300008B500F089F8084B186820B100F00400F0
:100A4000FFF79CFC07E000F02FF84FF4005000F097
:100A500051F9FFF7E5FFFEE784180020104B53F82B
:100A6000040B53F8041B1A680A4450F8043B41F87D
:100A7000043B9142F9DB00200A4B53F8041B1A682F
:100A80000A4441F8040B9142FBDB7047FFF7E6FF95
:100A9000FFF754FCFFF7CCFFFEE7FEE7FEE70000A0
:100AA000400000004C0000000C4BA5221A63EE220F
:100AB0001A63A3F5004304229A6030229A604FF42F
:100AC00000729A604FF480729A6003225A6003F5B4
:100AD000A04300221A6202221A63704700000340FA
:100AE0000F4B4FF000425A634FF480025A620122CA
:100AF0005A6341F20802C3F88421C3F864214FF419
:100B00000052C3F88821C3F84421C3F86421054A80
:100B10004FF6FA71116340F6FF72C3F87021704707
:100B200000A00240A0A00240064B04225A603022DE
:100B30009A604FF400729A604FF480725A600322F8
:100B40005A607047008002404B4BA52270B51A6373
:100B5000DD221A63A3F540536FF000425A62072268
:100B60005A63FFF7BDFF454A136813F0300F444B3B
:100B700002D148F204010EE0116801F030011029A1
:100B800001D1404907E0116801F0300120290CBF74
:100B90003D494FF4802119601368384913F4407FB0
:100BA0003A4B02D14FF4005212E00A6802F440724C
:100BB000B2F5807F02D14FF4804209E00A6802F466
:100BC0004072B2F5007F0CBF4FF4C0424FF40042B8
:100BD0001A602A4B1A6802F00302032A01D12C4B37
:100BE00006E01B6803F00303022B0CBF294B2A4BC2
:100BF0001B692A4B01221A60294B1A604FF40052DC
:100C00001268013204D042F204021268013201D1AA
:100C100005221A601A4D234A2B6853F8081C0A4013
:100C200021498A4221D153F8104C53F80C6CFFF73C
:100C30007BFF2B68A3F501539C4210D804F5FE54AA
:100C40003F3441F6FF73194A02E013F8011F1161A6
:100C5000A342FAD1154B1B6ADB43B3420AD0104BB7
:100C60001A6842F004021A6070BD0D4B1A6842F017
:100C700004021A6070BD00BF000003408090044071
:100C800088180020040001000400020080180020E1
:100C9000E0A1024040A10240A0A0024000000020CC
:100CA00084180020FF0000FF5A0000A500800240C9
:100CB000014B1861704700BF00800240014B186A69
:100CC000C043704700800240084B44F61F625A60E0
:100CD00000229A6005221A600A221968C903FCD50D
:100CE000013AFAD1024B40225A60704710E000E00E
:100CF00060D00240014B9860704700BF00ED00E0FB
:100D0000044B80F001001860034B81F00101196071
:100D1000704700BF8C18002090180020024A002362
:100D20001360024A136070478C180020901800204E
:100D300008B5FFF7F3FF044B4FF000425A6004225E
:100D4000A3F5FD535A6008BD00F002402DE9F041C3
:100D5000104CDBB22778104C5F4024780F4D634075
:100D600000240FE0065B04F10108904528BF46F41B
:100D70007F46C5F8A0C0023485F8C07085F8C03041
:100D8000C5F8B060944204EB010CEBD32046BDE8FB
:100D9000F08100BF8C1800209018002000E0024075
:100DA000084B4FF48022A521C3F8A0005A60002010
:100DB00083F8C010F12183F8C010C3F8B0009A6026
:100DC000704700BF00E002402D4B4FF000629A6177
:100DD0004FF0E0629A604FF040725A604FF48032F8
:100DE0005A604FF480225A604FF400329A604FF4F8
:100DF000C0129A604FF400225A604FF080429A600D
:100E00004FF000425A634FF4E0629A604FF4407230
:100E10005A6001225A6004225A6018229A600822FD
:100E20005A604FF480429A6030229A664FF4004232
:100E30005A634FF480625A634FF480725A665A665E
:100E4000196E0F4A4907FBD093F870105529F7D156
:100E5000B2F850309BB2A2F852304FF400239363A3
:100E6000AA2382F87030136B1B03FCD5054B6FF07F
:100E70007F425A6005221A6000229A60FFF7EAB8A2
:100E80000020004010E000E02DE9F84F5A4D5B4E85
:100E9000824689462F46B0462B6E5807FCD095F8FF
:100EA0007020552A08D13B6EC3F30243032BFAD8B6
:100EB000AA2387F87030EFE73A2AEDD1504B04218E
:100EC000596030219960102159604FF400715960C8
:100ED0004FF480715960032159601A610023B36097
:100EE00003E03368D90300F183802C6E14F007040B
:100EF000F7D097F87020424B1A610023C8F80830E9
:100F000002E03368DA0373D42C6E14F00704F8D0CF
:100F100097F870003A4BC1B219610023C8F8083045
:100F200002E03368DB0363D42C6E14F00704F8D0BE
:100F300097F87030324A334C136101EB0321237070
:100F4000314B4945187017D9304B1960304BC3F8F5
:100F50000090A1E7B06004E0D6F800C01CF4803F28
:100F600043D12B6E13F00703F6D097F870300AF8D0
:100F700004301361013401E0002420468C4201D08A
:100F80004C45E7D10023C8F8083002E03268D203AC
:100F90002BD42B6E13F00703F8D0002397F87020A2
:100FA000C8F8083002E03068C0031ED42B6E13F07E
:100FB0000703F8D0124B97F870B01B6942EA0B2276
:100FC0005046934214BF4FF0FF0B4FF0000BFFF75A
:100FD00067F960B92B6EC3F30243032BFAD8BBF158
:100FE000FF0F87F870B003D156E71C4600E00024DD
:100FF0002046BDE8F88F00BF0020004010E000E070
:1010000000800240941800209C18002098180020AE
:10101000A01800202DE9F84F05460C46FFF7E4F82C
:10102000002877D13E4A4FEA142C3E4B5FFA8CFBE6
:1010300003211646D2F860A01AF4E02AFAD1042758
:101040005F604FF0100830279F60C3F804804FF4B2
:101050000078C3F804804FF48078C3F804804FF020
:101060000308C3F804804FF03A095FFA84F882F865
:10107000709082F870A082F8708082F870B0C3F827
:101080001090C3F810A0C3F81080C3F810C0D2F8B5
:101090006080C8F30248B8F1010FF8D84FF000089B
:1010A00010E0D2F86090C9F30249B9F1010FF8D805
:1010B00015F8089086F8709015F8089008F1010866
:1010C000C3F81090A045ECD1D3F81080164F5FFA0A
:1010D00088F9C8F3072886F8709086F870804FF07A
:1010E0000008C7F8088004E00F4F386810F480301B
:1010F00005D1D2F8608018F0070FF5D010B161B1BA
:10110000013997E796F87080B8F1000F92D1204628
:10111000BDE8F88F0020BDE8F88F0846BDE8F88FDD
:0C112000002000400080024010E000E0D1
:0400000300000A8D62
:00000001FF
