:10000000008000201D080000290800002B080000C7
:100010002D0800002D0800002D0800000000000041
:100020000000000000000000000000002D0800009B
:100030002D080000000000002D0800002D08000021
:10004000840F0000000000200000000000000020DD
:10005000941800000D4B1A69D20715D51A6990073C
:1000600012D41B6913F004020ED1094B4FF4200186
:1000700059609A6005221A601968054AC903FBD5C0
:10008000002313605360936000F090BB60D0024087
:1000900010E000E0F8B5044600F0E8F900F0EEFDED
:1000A0009A4A9B4B24B10A21116007221A6002E090
:1000B000022111601C60974A00231360964A934DF9
:1000C0001360964A964C13602B68032B12D1954E01
:1000D0000721304600F0A8FEA8B13378032B06D0E4
:1000E00000239A5D1A550133072BFAD108E001224B
:1000F000894B0CE08A4840F2074100F095FE10B1B0
:100100000122844B03E00A232B60814B10221A60EA
:10011000804A1368002B34D02178052906D10023AA
:1001200013602B687E48237001211CE0072922D12F
:1001300000231360012263706371A371E371237262
:10014000A372E3723026E270A3700422764B217111
:10015000267062721B687548A3F50153E36000F0D6
:100160006BFC6F48314600F0BDFE0028ACD10A237D
:100170002B60102248E1082903D10023136000F00E
:10018000FDFC2B68023B082B9ED801A252F823F0FD
:10019000B50100008B020000C9000000E70200006A
:1001A00059030000C9000000C900000097030000C7
:1001B0004F020000574A1368002B85D02378032B89
:1001C00009D1534E002313603268E37022706370CC
:1001D000A370022225E1012B10D100231360B4F893
:1001E0000510534800F04CF9494B186020B903231F
:1001F0002B604A4B186067E70A2382E0022B7FF4EA
:1002000063AF4C4E002313603360B4F801303BB948
:10021000424A474813604FF4806100F045FA30606D
:10022000444E4348316800F05DFE3368B3F5806F9B
:10023000374B08D109222A6000221A60374B1A680E
:1002400001321A6040E702222A600022F9E7314AAF
:100250001368002B3FF438AF2378032B13D12C4EB7
:100260000023136032680A2722706370A370E37062
:10027000277163712A48062100F034FE00287FF4BC
:1002800023AF2F60D8E0042BDAE0234B1A681AB3AF
:10029000244A1278032A1FD100221A601F4B1B68C0
:1002A00013B900F02DF904E0B4F80510204800F06F
:1002B0004BF9174B164E1860184B1A6801321A602A
:1002C0003368002B0CBF05220A22237000232A600A
:1002D000E3706370A370A4E00E4A1368002B3FF430
:1002E000F3AE2378ABE00B4A1368002B3FF4ECAE7F
:1002F0002378012B20D100231360B4F8053013B10B
:1003000003232B60E0E60623FBE700BF0400002088
:1003100014000020240400202804002010000020E5
:100320001800002008000020881800202800002065
:100330001F00002020040020062B00F08380032BE8
:100340007FF4C2AE434E002313603268E370227024
:100350006370A370052264E03F4B1A68A2B1227853
:10036000032A11D100271F6000F040F9394EB8422E
:100370000CBF02230A2330602B6020706770A770C7
:10038000E770237167714EE02378062B7FF49CAEF3
:100390000023314A57E0304A1368002B3FF494AEF3
:1003A0002378022B32D12D4E0023136033602C4B67
:1003B000B4F801201B689A4206D12A484FF48061A4
:1003C00000F0B4F9306004E00A232B60214B0822CE
:1003D0001A602448316800F085FD20B90A232B609B
:1003E0001C4B10221A601D4B1B68B3F5806F04D1A3
:1003F00009232B600022174B1FE72B680A2B3FF4C1
:1004000063AE02232B600022124B1AE7032B16D196
:10041000104E002313603268E37022706370A37083
:100420000922227163711048062100F05BFD00284B
:100430007FF44AAE0A232B601023336044E6062B78
:100440007FF442AE0023136002222A60014A136047
:100450003AE600BF140000202404002020040020FD
:10046000100000201F0000201800002008B500F038
:10047000B9FB024B4FF0FF321A6008BD7C0400202C
:10048000B1F5806F10B52FD119490022845C184B4B
:1004900054540132502AF9D11A88B2F5807F23D101
:1004A000144A196B1268A2F5015291421CD8DA7DE8
:1004B000332A19D11A7E552A16D15A7E312A13D1E0
:1004C000996B0D4A0A400D498A420DD11A6CB2F55A
:1004D000005F09D15A6CB2F5806F07D1986CD96C66
:1004E00000F068FB002010BD022010BD022010BDEE
:1004F0002C04002088180020FF0000FF5A0000A5EF
:1005000038B50E4D0E4C0121284600F0A3FB2068A3
:100510000121103800F09EFB2B68013304D12368C1
:1005200053F8103C013303D000F052FB052038BDD6
:10053000044B4FF400521A60002038BDFCFF03004A
:10054000881800207C040020B1F5806F70B5054646
:1005500003D000F03DFB022070BD214B1868214BF9
:100560001B6B03F50053984203D21F4A1268904256
:1005700003D300F02DFB082070BD00F580629A4285
:100580008CBFC0EB03040C46012100F063FB144B4D
:1005900019680B4601F5806207E053F8040B01303F
:1005A00003D000F015FB052070BD9342F5D3224621
:1005B0000123284600F024FB094900230A6808E0CB
:1005C0009E5CE85C864203D000F002FB072070BD11
:1005D0000133A342F4D102F580620A60002070BDAD
:1005E0007C0400202C0400208818002038B52A4BF9
:1005F0001D6B00F03DF9294B1B68A3F501539D428B
:100600003ED805F5FE553F3541F6FF7403E014F87A
:10061000010F00F005FAAC42F9D100F007FA1E4CC8
:10062000636B98422CD11D4D382229680123403933
:10063000204600F0E5FA1A490422012304F13C00A7
:1006400000F0DEFA29680123083904F13800042299
:1006500000F0D6FA2968002358181D5D10F8400CE8
:100660000D4A85420CD10133382BF5D10C4B18685B
:10067000D36B984204D151F8081C936B994203D074
:1006800000F0A6FA072038BD064B4FF0FF321A6083
:1006900000F09EFA002038BD2C04002088180020AD
:1006A000FCFF03007C0400201C4A03461C4870B574
:1006B0001468002214F8405C9D5414F8405C013426
:1006C000155401323C2AF5D1164D15482C789C540E
:1006D00015F8016B124C16540132402AF6D14FF432
:1006E000005020644FF480606064105D0C4D98549D
:1006F0000132482AF9D1A520F122EA64A864DA641B
:1007000098645022002001E0985401328A42FBD3C1
:10071000054B4FF400521A60084670BD881800203F
:100720002C040020FCFF03007C04002003461A4830
:1007300030B51A4A846B2240194CA24227D1026B71
:1007400018480068A0F50150824220D8164C02F5E6
:100750000052206890421AD80D18954202D9121AF8
:1007600001D116E00A46002003E02568455D1D54CE
:1007700001309042F9D11046FF2401E01C540130B1
:100780008842FBD3084B186812181A6002E0002157
:1007900000E01146084630BD2C040020FF0000FF99
:1007A0005A0000A5881800207C0400207047000033
:1007B0000248D0F800D0D0F804F0704700200000C4
:1007C00008B500F065F8084B186820B100F0040087
:1007D000FFF760FC07E000F02FF84FF4005000F046
:1007E000E3F9FFF7E5FFFEE784180020104B53F80C
:1007F000040B53F8041B1A680A4450F8043B41F8F0
:10080000043B9142F9DB00200A4B53F8041B1A68A1
:100810000A4441F8040B9142FBDB7047FFF7E6FF07
:10082000FFF718FCFFF7CCFFFEE7FEE7FEE700004E
:10083000400000004C0000000C4BA5221A63EE2281
:100840001A63A3F5004304229A6030229A604FF4A1
:1008500000729A604FF480729A6003225A6003F526
:10086000A04300221A6202221A637047000003406C
:10087000064B04225A6030229A604FF400729A604C
:100880004FF480725A6003225A6070470080024021
:10089000554BA52270B51A63DD221A63A3F54053A8
:1008A0006FF000425A6207225A63504A136813F0ED
:1008B000300F4F4B02D148F204010EE0116801F0F5
:1008C0003001102901D14B4907E0116801F03001D6
:1008D00020290CBF48494FF480211960136843490F
:1008E00013F4407F454B02D14FF4005212E00A68E6
:1008F00002F44072B2F5807F02D14FF4804209E0E9
:100900000A6802F44072B2F5007F0CBF4FF4C04297
:100910004FF400421A603A4B00221A60394B1A60B9
:10092000324A116801F00301032904D1364A1269E1
:1009300012F4807F0DE0126802F00302022A04D153
:10094000324A126912F0080F03E0314A126912F4B8
:10095000804F01D101221A602A4B1B6823B1284B1A
:100960001A6842F001021A604FF400531B68013309
:1009700004D042F204031B68013304D1204B1A68EF
:1009800042F004021A601A4D224A2B6853F8081CE0
:100990000A4021498A4221D153F8104C53F80C6C7B
:1009A000FFF766FF2B68A3F501539C4210D804F5AE
:1009B000FE543F3441F6FF73184A02E013F8011F5A
:1009C0001161A342FAD1154B1B6ADB43B3420AD033
:1009D0000B4B1A6842F004021A6070BD084B1A688B
:1009E00042F004021A6070BD000003408090044091
:1009F0008818002004000100040002008018002074
:100A00008418002000000020E0A1024040A1024024
:100A1000A0A00240FF0000FF5A0000A50080024095
:100A2000014B1861704700BF00800240014B186AFB
:100A3000C043704700800240304B1B780370304B3E
:100A40001B7843702F4B1B7883702F4B1B78C37020
:100A50002E4B1B7803712E4B1B7843712D4B1B784B
:100A600083712D4B1B78C3712C4B1B7803722C4B5D
:100A70001B7843722B4B1B7883722B4B1B78C372F2
:100A80002A4B1B7803732A4B1B784373294B1B7823
:100A90008373294B1B78C373284B1B780374284B33
:100AA0001B784374274B1B788374274B1B78C374C4
:100AB000264B1B780375264B1B784375254B1B78FB
:100AC0008375254B1B78C375244B1B780376244B09
:100AD0001B784376234B1B788376234B1B78C37696
:100AE000224B1B780377224B1B784377214B1B78D3
:100AF0008377214B1B78C377704700BFF090044089
:100B0000F1900440F2900440F3900440E0900440DF
:100B1000E1900440E2900440E3900440D09004400F
:100B2000D1900440D2900440D3900440C09004403F
:100B3000C1900440C2900440C3900440800304006C
:100B4000810304008203040083030400840304007F
:100B5000850304008603040087030400880304005F
:100B6000890304008A0304008B0304008C0304003F
:100B70008D0304008E0304008F030400084B44F629
:100B80001F625A6000229A6005221A600A221968C0
:100B9000C903FCD5013AFAD1024B40225A60704792
:100BA00010E000E060D00240014B9860704700BF49
:100BB00000ED00E0044B80F001001860034B81F071
:100BC00001011960704700BF8C18002090180020A8
:100BD000024A00231360024A136070478C180020F9
:100BE0009018002008B5FFF7F3FF044B4FF00042C8
:100BF0005A600422A3F5FD535A6008BD00F002407C
:100C00002DE9F041104CDBB22778104C5F4024787E
:100C10000F4D634000240FE0065B04F1010890458E
:100C200028BF46F47F46C5F8A0C0023485F8C070DE
:100C300085F8C030C5F8B060944204EB010CEBD3EA
:100C40002046BDE8F08100BF8C18002090180020DD
:100C500000E00240084B4FF48022A521C3F8A00019
:100C60005A60002083F8C010F12183F8C010C3F847
:100C7000B0009A60704700BF00E0024010B5164B0C
:100C80004FF000414FF4800259635A6243F6FF72FD
:100C9000C3F8D020114B01241A697B2042F03F0297
:100CA0001A619C2283F8712083F86120002283F866
:100CB000502083F8604083F8622083F86300186F47
:100CC00064F3030018675960054B06495960052114
:100CD00019609A6010BD00BF00A002400090004063
:100CE00010E000E0002D31012DE9F04F002900F067
:100CF00093804B4B0027DFF82CC102244FF4815B1B
:100D00004FF480294FF400281E46BA461A68D504CD
:100D100019D51A6C02F0FE05F02D11D15C601D6929
:100D2000012767F31555D2071D6106D510F8012B71
:100D300001391A64C3F8048003E0C3F8049000E0AA
:100D40009C60C3F808B01D6815F4807505D04FF499
:100D500088729A6000295BD101253268970544BFEB
:100D60004FF400729A601A68520511D541B11A6C9D
:100D7000013900F8012B03D05C60C3F8049001E056
:100D80009C6000214FF480629A604FF400729A6078
:100D90001A6817050FD51A68920706D529B110F8F9
:100DA000012B01391A64C3F804804FF40072B26059
:100DB0004FF40062B2601F68194A17F4003F06D072
:100DC0004FF4003393604FF08043536005E01F6899
:100DD00017F4005703D04FF40053936011E0DCF890
:100DE0000020D20308D50AF1010A5FFA8AFABAF1A3
:100DF000020FCCF8087004D8002D87D00020BDE881
:100E0000F08F002D0CBF4FF0FF300020BDE8F08FB9
:100E10004FF0FF30BDE8F08F0846BDE8F08F00BF0F
:100E20000090004010E000E02DE9F74F2C4C074601
:100E30008946264668460621FFF756FF05460028E4
:100E40004AD19DF800303A2B47D10422626030220B
:100E5000A260102262604FF4007262604FF48072F0
:100E600062600322626023619DF80130384623618D
:100E70009DF8023023619DF8032043EA0228C8450B
:100E800028BFC846226141469DF805B09DF804A0E0
:100E9000FFF72AFF08BB054602E07B5D01353361A1
:100EA0004545FAD133694AEA0B2A534509D0FF2355
:100EB000684601218DF80030FFF716FF0028B9D0F1
:100EC0000AE00023684601218DF80030FFF70CFF8F
:100ED000002818BF002500E000252846BDE8FE8F49
:100EE00000800240264B042273B55A6030229A607B
:100EF00010225A604FF400725A604FF480725A60A8
:100F000003225A603A26002205460C46C8B2C1F3B5
:100F100007218DF800608DF801208DF802008DF812
:100F200003101E611A611861196102E0A95C0132A7
:100F30001961A242FAD11B6968468DF80430062176
:100F40001B0A8DF80530FFF7CFFE064680B928460C
:100F50002146FFF7C9FE054660B968460121FFF743
:100F6000C3FE48B99DF80030FF2B08BF002404E001
:100F7000002402E0344600E02C4620467CBD00BF41
:040F800000800240AB
:040000030000081DD4
:00000001FF
