:020000040000FA
:100000000020002055000000DFF80CD000F0F8FDC3
:100010000048004729000000002000204FF4005055
:10002000D0F800D0D0F804F000F005FB08480068D4
:1000300020B100F0040000F011F807E000F094FB9C
:100040004FF4005000F006FCFFF7E8FFFEE7000069
:1000500000000020004800470900000008B5804665
:1000600000F05CF900F06EFCA94DAA48A94F009081
:100070002C460020183FAB4626464FF00A09B8F13F
:10008000000F03D00721C7E9009102E00221C7E970
:100090000010F860386180464FF0100AB860386888
:1000A000032806D040F20741994800F0ACFC88B91B
:1000B00016E00721974800F0A6FC88B10098007868
:1000C00003280AD09249934A0020135C0B54401C29
:1000D0000728FADB0120F86006E00120386101E022
:1000E000C7E9009AF86858B32878052804D007288B
:1000F0000AD0082820D023E0C7F80C8039788BF884
:1001000000105846012197E03021C7F80C8031805B
:100110000121F17086F80280072070608802B060CB
:100120007D480068A0F50150F06006F1100000F075
:1001300031FB302130467FE0C7F80C8000F076FBC1
:100140003868801E0928AAD2DFE800F0064C057D39
:10015000920505A44300A2E7F86800289FD02878FC
:1001600003280BD001280FD0022898D1C7F80C80A3
:10017000C7F81480B5F80100B8B11EE0C7F80C80CC
:100180003979404621704FE0C7F80C80B5F805106A
:10019000E81D00F0CBF8786010B1C7F800907EE75A
:1001A0000320C7F80880386079E74FF48061E81DC4
:1001B000C7F8088000F0B5F97861E81D796900F0AA
:1001C000B4FC08B9C7E9009A7869B0F5806F71D0BE
:1001D00092E0F8680028BED028780328CED0042802
:1001E000B9D161E0386918B100980078032804D0CB
:1001F000F8680028AFD0287854E0C7F81080B868B5
:1002000058B1B5F80510E81D00F0E7F87860B86857
:10021000401CB860786818B136E000F0C0F8F5E727
:10022000052135E020704046A4F80100E0703978DF
:10023000217160710621204600F077FC00288AD1E8
:10024000C7E9009A2BE7F868002884D028780128AD
:1002500004D0062828D00328A1D18FE7C7F80C8046
:10026000B5F8050008B1032000E00620386016E765
:10027000F8680028BFD028780328BCD1C7F80C80C4
:1002800000F0FBF8786010B1C7F80090CAE70221CF
:100290003960C7E7F868002886D0287802280AD095
:1002A0000328DAD00628CDD10220C7F80C80C7E990
:1002B0000008F4E624E0C7F80C80C7F81480B5F80D
:1002C0000100B968884206D14FF48061E81D00F052
:1002D00061F9786102E00820C7E90090E81D7969BA
:1002E00000F023FC08B9C7E9009A7869B0F5806F7F
:1002F00006D038680A28A5D00220C7E90008CEE653
:100300000920C7E90008B868401CB860C7E60000CB
:1003100048000020240000200400002010B500F058
:10032000C0FAB5494FF0FF30086010BD10B54FF46A
:10033000806399422BD1B14A5FF0000110F8014B64
:10034000491C02F8014B5029F8DBAC480188B1F593
:10035000807F1CD1AA49026B0968A1F501518A422C
:1003600015D8C17D332912D1017E55290FD1417E87
:1003700031290CD1A34A816B1140A34A914206D185
:10038000016CB1F5005F02D1416C994201D00220AD
:1003900010BD483003C800F08FFA002010BD70B5C2
:1003A0009A4D0121284600F0B2FA954C01212068AF
:1003B000103800F0ACFA2868401C04D1206850F8CE
:1003C000100C401C03D000F067FA052070BD8A496C
:1003D0004FF400500860002070BD2DE9F0410E463A
:1003E0000746B1F5806F04D000F056FA0220BDE850
:1003F000F0818248804C016B20680A4601F500516B
:10040000814203D97E4B1B68984203D300F044FA23
:100410000820ECE700F580638B4203D9151A05F537
:10042000005500E03546012100F071FA20680146D0
:1004300000F5806207E00B685B1C03D000F02CFA2B
:100440000520D4E7091D9142F5D3014601232A4630
:10045000384600F039FA0020216808E00A5C3B5C6D
:100460009A4203D000F018FA0720C0E7401CA842C7
:10047000F4D3881920600020B9E72DE9F0415F4DE1
:100480002F6B00F0CCF85E4C2068A0F5015087423D
:100490003BD8002606E000BF4FF40050805D00F01E
:1004A000BBF8761CBE42F7D300F0B2F8696B81420C
:1004B0002BD12168012338224039504800F004FA3A
:1004C000524E4E480123042231463C3000F0FCF9E4
:1004D00021684A48012304220839383000F0F4F931
:1004E0002168464B0A46403900201C5C0F5CBC4228
:1004F0000BD1401C3828F8DB3068E96B814204D10D
:1005000052F8080CA96B814203D000F0C5F907200E
:100510006DE739494FF0FF30086000F0BDF9002069
:1005200065E7F0B502463648344C0368403B00208E
:100530001D5C15541D5C2554401C3C28F8DB334DD4
:100540000023EE5C1654EE5C2654401C5B1C042B0E
:10055000F7DB2A4C4FF40055EB10C4E9105304F1BB
:1005600040060023F75C1754401C5B1C082BF9DB8A
:10057000A526F123C4E912631650001D1350001D77
:10058000002301E01354401C8842FBD31A48056045
:100590000846F0BD70B5054618481A4B826B1A40E4
:1005A000194B9A4213D1026B15480068A0F501500F
:1005B00082420CD8104C02F500532068834206D3C7
:1005C00046189E4205D9131A13F5005302D1002094
:1005D00070BD0B46002202E0865CAE54521C9A426B
:1005E000FAD3FF208A4202D2A854521CFAE72068AC
:1005F00018442060084670BD2C00002050040020E4
:1006000004000020FF0000FF5A0000A5FCFF0300CB
:100610009248006AC04370479049086170478F480C
:100620000421416030218160411581608115416064
:10063000032141607047F0B58948A5210163DD21A0
:10064000016388486FF00041416207214163864899
:10065000D0F88010854B11F0300F3BD0D0F88010CF
:10066000C1F30111012938D0D0F88010C1F3011174
:10067000022934D04FF480211960D0F880104FF453
:10068000005411F4407F7A492BD0D0F88020C2F377
:100690000122012A27D0D0F88020C2F30122022AA9
:1006A00024D0A2000A60734A7349002515600D60CA
:1006B000D0F88050714EED43AF074FF0010518D0D0
:1006C000D0F8800000F00300022819D0D6F8B0005E
:1006D000800418E048F20401CEE76949CCE7694993
:1006E000CAE70C60DFE74FF48042DBE74FF4C0421B
:1006F000D8E7D6F8F001C00505E00D60156004E00C
:10070000D6F8500100070028F7DA2068401C02D014
:100710006068401C03D1106840F004001060186845
:10072000594C50F8081C2140584CA14217D11038A0
:10073000D0E90045FFF773FF1868A0F50150844227
:100740000DD80020454B04E04FF40051095C1961BD
:10075000401CA042F8D3FFF75BFFA84203D010680B
:1007600040F004001060F0BD3D48A5210163EE217A
:1007700001633A4804218160302181604115816024
:100780008115816003214160364800210162022108
:10079000016370473449C03191F83020027091F8FC
:1007A0003120427091F83220827091F83320C2706B
:1007B00091F82020027191F82120427191F82220B5
:1007C000827191F82320C2710A7C02724A7C4272C3
:1007D0008A7C8272CA7CC2720A7802734A78427337
:1007E0008A788273C978C17329490A7802744A7871
:1007F00042748A788274CA78C2740A7902754A7916
:1008000042758A798275CA79C2750A7A02764A7AFD
:1008100042768A7A8276CA7AC2760A7B02774A7BE5
:1008200042778A7B8277C97BC17770474FF0E0209F
:1008300044F61F61416100218161052101610021B0
:100840000269D203FCD5491C0A29F9D30549402085
:10085000486670470F4908607047000000800240FA
:100860000000034000D0024000900440040000203B
:1008700008000020000000203000002000A00240FE
:100880000400010004000200FF0000FF5A0000A560
:100890008003040008ED00E026480021016041606B
:1008A000704700B5FFF7F8FF23494FF0004048605C
:1008B00022490420486600BD80F001021D4881F0F5
:1008C0000101C0E900217047F0B51A4F064600202B
:1008D0003D781B4C5D4005F0FF0C15E0358800F1BC
:1008E000010E964501D345F47F45C4F8A01084F865
:1008F000C0C097F804E08EEA030E84F8C0E0C4F8A4
:10090000B050B61C891C801C9042E7D3F0BD0C4946
:10091000C1F8A0004FF480204860A52281F8C020D3
:10092000F12281F8C0200022C1F8B0208860104672
:10093000704700003400002000F0024000D0024068
:1009400000E00240AA4810B54FF000424263012384
:10095000436300F586708114816781654900C16732
:10096000816381654FF6FF7140F83C1C09114166B7
:10097000A048110981614FF0E06181604FF0407142
:1009800041608113416041014160010181604FF488
:10099000C0118160810141604404846042634FF46E
:1009A000E06282604FF44072426043600422426021
:1009B000182282600822426002148260302282661D
:1009C000C213426302154263821542664266026E9A
:1009D0005207FCD090F87020552AF8D1B0F850207A
:1009E000A0F852208163AA2180F87010016B0903DE
:1009F000FCD54FF0E0206FF07F414161052101619E
:100A00000021816110BDF0B5DFF8ECE17B4E794A41
:100A1000844600274FF0E025106E4007FCD092F886
:100A20007000552810D03A28F6D104237360302383
:100A3000B360102373605B0173605B10736003230A
:100A400073603061AF6109E0106EC0F302400428AA
:100A5000FAD2AA205EE02869C00349D4106E40078C
:100A6000F9D092F870003061AF6102E02869C003EC
:100A70003ED4106E4007F9D092F870003061AF613B
:100A800002E02B69DB0333D4136E5B07F9D092F8D5
:100A90007040346100EB04238EF800408EF80100B2
:100AA0008B4202D9CEE90131B6E700200DE0AF61FB
:100AB00002E02C69E4031BD4146E6407F9D092F8A9
:100AC00070400CF800403461401C984201D28842CA
:100AD000EDD3AF6102E02B69DB0309D4136E5B0732
:100AE000F9D092F87040AF6104E02B69DB0301D5C7
:100AF0000020F0BD136E5B07F7D092F8703044EA27
:100B0000032334699C4208D0106EC0F302400428CD
:100B1000FAD2FF2082F870007EE7116EC1F3024125
:100B20000429FAD282F87070F0BD2DE9F043002557
:100B3000324B304A4FF003082C464FF0E029166E36
:100B400016F4E02FFBD104265E6030269E6010264E
:100B50005E6076015E6076105E6003265E603A2716
:100B600002F8707F1470CEB216704FEA112C02F8A2
:100B700070C91F611C611E610E0A1E61166EC6F3EC
:100B80000246012EFAD800260AE0176EC7F3024784
:100B9000012FFAD8875D82F87070875D1F61761C1F
:100BA0008E42F2D31F6982F870703F0A82F870702B
:100BB0004F46C9F8184003E03D6915F4803505D16A
:100BC000D2F860C05FEA4C7CF6D045B1B8F1000FB6
:100BD00002D0A8F10108B2E70020BDE8F08392F846
:100BE0007070002FABD13046F7E770470020704798
:100BF00000A00240002000403C0000200080024095
:100C0000064C074D06E0E06840F0010394E8070059
:100C100098471034AC42F6D3FFF7FAF9440C0000C1
:100C2000640C000002E008C8121F08C1002AFAD1B3
:100C300070477047002001E001C1121F002AFBD15C
:100C400070470000640C0000000000204800000015
:100C5000240C0000AC0C00004800002058040000E8
:100C6000340C000000000000000000000000000044
:100C70000000000000000000000000000000000074
:100C80000000000000000000000000000000000064
:100C90000000000000000000000000000000000054
:0C0CA00000000000000000000000000048
:0400000500000009EE
:00000001FF
