:1020000000800020652100004121000045210000E2
:10201000492100004D210000512100000000000076
:10202000000000000000000000000000552100003A
:1020300059210000000000005D210000DD230000A8
:10204000612200006122000061220000BD24000026
:102050006122000061220000612200006122000074
:102060006122000061220000612200006122000064
:102070006122000061220000612200006122000054
:102080006122000061220000612200006122000044
:102090006122000061220000612200006122000034
:1020A0006122000061220000612200006122000024
:1020B0006122000061220000612200006122000014
:1020C0006122000061220000612200006122000004
:1020D00061220000612200006122000061220000F4
:1020E00061220000612200006122000061220000E4
:1020F000B92400006122000061220000612200007A
:1021000061220000612200006122000061220000C3
:102110006122000061220000005000000010002039
:10212000040000000050000000000020000000003B
:1021300004100020580100000000002000000000F2
:10214000FEE700BFFEE700BFFEE700BFFEE700BFFF
:10215000FEE700BFFEE700BFFEE700BFFEE700BFEF
:10216000FEE700BFF8B5224B224E04E0996893E8E1
:1021700011000C3329BBB342F8D31F4DAB421BD225
:10218000002101E0AB4217D258681C6808330028D0
:10219000F8D00422461E90420951C6F38006F1D9B8
:1021A0001EB1082290426160ECD9171D115108320E
:1021B00090423951E6D9F8E700F054F800F0E0F920
:1021C000FEE7076804224D1E91422760C5F3800593
:1021D000D1D925B14568082291426560CBD91758FD
:1021E000151D17512F58083291422F51C3D9F6E7C8
:1021F00018210000302100004021000030B4AAB1B5
:102200000468531E0C60C3F3800404239A420DD962
:1022100024B1446808239A424C6007D91D581C1DFC
:102220005D50255808339A426550F7D830BC704746
:1022300010B491B14B1EC3F38002042300249942D1
:1022400024500AD91AB108239942446005D91A1DAD
:102250001C50083399421450F9D810BC704700BF85
:10226000FEE700BF4DF26003C4F202031A69D00713
:102270001FD5186981071CD41B6913F0040218D1FB
:102280004EF2100CCEF2000C4FF42001CCF80410EA
:10229000CCF8082005226146CCF8002008684EF2F0
:1022A0001003C203CEF20003F8D500221A605A6070
:1022B0009A6000F05DB800BF2DE9F04383B0019350
:1022C000274C00F0B5F8274800F0A4FE48F21F584C
:1022D00044F6D357244D019BA146C5F2EB18C1F239
:1022E000620722689A4209D0D9F80000A8FB0013BF
:1022F00032211A0901FB1203D3B123682A68B242C2
:10230000EFD0194A4FF47A7E11684AF2E012A7FB27
:10231000016080090EFB1016C4F2020236B9106883
:10232000C1431FFA81FC4CF00066D6602E68D8E7E6
:102330004AF2E01CC4F2020CDCF80010C84383B27D
:1023400043F08062CCF80C20DCF81010DCF81000B0
:10235000C1F30021C0F34022044800F05BFECCE74B
:1023600004100020F04C00000C100020004D000074
:10237000002210B4C4F20302A52414634FF45040A9
:102380004AF24013DD241463C4F202030821C4F2AC
:102390000200022242625964596210BC704700BFB9
:1023A000FEE700BF4FF41041C4F2020108234B6165
:1023B0000A694FF410431207C4F20203F8D41A6DED
:1023C000054902F5A270C21C1A620868421C01206D
:1023D0000A609861704700BF0410002041F20C03AE
:1023E000C2F200031868421C1A60704710B441F230
:1023F000000C4FF434544EF21003CEF2000344F6B6
:102400001F614FF46D42C2F2000CC0F23114CCF8DF
:102410000040CEF200025960F020002182F8230033
:1024200099600721196082F8230010BC704700BF33
:1024300008B5FFF7DBFF00F005F8BDE8084000F045
:102440004FB800BF2DE9F0034FF450484AF2401452
:10245000C4F202044FF0080C4FF420424AF2E01399
:102460004AF2A001C4F202084FF00209C8F8249011
:10247000C4F20203C4F844C04FF44070C4F824C04E
:10248000C4F20201C4F202024FF440674FF4C06686
:102490004FF00044546480255F645F629864586024
:1024A00058628E624E607F215D645D6219634023D5
:1024B0005364BDE8F0037047FFF772BF08B54FF4EF
:1024C0001040C4F202000369DB0701D5FFF76AFF81
:1024D0004FF41041C4F202010A690B6908BD00BF44
:1024E0004FF4504C4FF41043C4F2020301214FF05B
:1024F0000042C4F2020C10B44FF08040CCF834100B
:102500004FF400345A604FF480325C6098600824C5
:102510009A604FF4802002225C60194658605A602D
:1025200008694FF41043C005C4F20203F8D508242B
:102530005C6119460A694FF410431207C4F20203A2
:10254000F8D41C6D4FF4614C04F5A272CEF2000C6D
:102550000820D11C4FF48054012219629A614FF077
:102560000051CCF88441CCF88001CCF80440CCF880
:1025700000004FF080705860596010BC704700BF79
:10258000002010B50146024600F06CFDBDE8104089
:10259000FFF792BE10B5425C4318342A1FDD352A7E
:1025A00005D11C4614F8012F302AFBD0CAB113F80C
:1025B000014C5A1E392C04D1093C03F8014C134636
:1025C000F5E7013414700378302B04D10BE0425C42
:1025D00043185A7001390029F9DA012010BD002092
:1025E00010BD104610BD002010BD034600E00139AB
:1025F0005A1812F8012C302AF9D03E2AF7D02E2A88
:1026000008BF01390846704710B5002300E01046A6
:102610000A2290FBF2F26FF00904303004FB020052
:10262000C854013B13F1060FF1D110BD0EB430B503
:1026300090B013AB53F8044B00212822054605A89F
:102640000F9301F0C6FB0A2308936FF00043079332
:102650000F9B05A80193104B4FF0FF3202936FF0D0
:1026600000430094059500F04BFD079B0446013B99
:10267000002B079305DB059B002203F8012B059334
:1026800003E0002005A901F0C8FB204610B0BDE81A
:10269000304003B0704700BFA126000000000000DA
:1026A0002DE9F04F0E684D68A3B0294682463046AA
:1026B000CDE90A010B999946C1F30F4323F00F03AB
:1026C0005B0414465B0C47F6F07293422D9F35D1A4
:1026D0000023E3700B9A0A9DC2F313031D434FF0CE
:1026E0006E0322D163706922083BA3702270DDF86B
:1026F0002CA0CAF3076303F08003DBB223B1884B3D
:102700002C98036000F053BC19F0020F08D1854AE1
:10271000854B09F00409B9F1000F18BF134600E01A
:10272000824B2C990B6000F042BC61222370A37095
:1027300062707D4B2C9A136000F039BCBAF1610FC6
:1027400000F05D82BAF1410F00F05982304629460F
:102750000022002302F0E8F920B1012305F1004531
:102760000D9300E00D90304629460022002302F030
:10277000C0F9002840F02282304621AA294601F003
:102780005EFC219A40F22D165643A6F5AA563C3E11
:102790004FF47A7396FBF3F6CDE91E01B21A0020CE
:1027A000634901F07DFC002ECDE9140106DA56A341
:1027B000D3E900237542CDE9182306E05D4B4FF0C5
:1027C0000002CDE9182317D0354615F0010F09D0C6
:1027D000DDE91401DDE9182301F07CFE012DCDE9CE
:1027E000140109D0DDE91801DDE9182301F072FEBA
:1027F0006D10CDE91801E8E7DDE91E01DDE91423DC
:1028000001F0FCFECDE91C0110E0DDE91C01002215
:10281000494B01F05FFECDE91C01DDE91401002206
:10282000454B01F0EBFECDE91401013EDDE91C0151
:1028300037A3D3E9002302F077F90028E5D110E0AF
:10284000DDE91C0100223C4B01F0D8FECDE91C0162
:10285000DDE914010022384B01F03CFECDE9140102
:102860000136DDE91C012CA3D3E9002302F0B6F9FF
:102870000028E5D1DDE91C0102F0ECF82546804690
:10288000CDF84CA0404602F02CF9219AB21A01F082
:1028900007FC00220023002ECDE91C01CDE91A23FC
:1028A0004CDA19A1D1E90001CDE91801CDE91623CF
:1028B000DDE918ABDDE918014FF0000ADDE9162368
:1028C000CDE9082352465B4601F03AFF02460B462B
:1028D000DDE9080102F020F8CDE91601CDE918ABD9
:1028E000DDE918010022134B01F0F4FD02460B460E
:1028F00000200F4901F024FF00220E4B01F07EFE64
:102900007442CDE9160123E09A9999999999C93FA2
:1029100000000000006AF8400000000080842E41A2
:102920003A4D00000A4D0000884D0000084D00009F
:102930000000F03F00001440000024409A494FF08E
:102940000000CDE91801CDE9162300F08A80344655
:1029500014F0010F4AD0DDE91C01DDE91623DDE9A1
:102960001AABCDE908ABDDE918ABCDE904ABDDE985
:1029700016ABCDE90EAB01F0ADFDDDE90E238246CD
:102980008B46DDE9040101F0C7FF02460B46DDE995
:10299000080101F09FFD02460B465046594601F0E2
:1029A000BBFFCDE91A01DDE91C01DDE9182301F0C7
:1029B00091FDCDE91C01DDE91C23DDE91C010022AC
:1029C00092469B46DDE91A23CDE9082352465B4631
:1029D00001F0B6FE02460B46DDE9080101F09CFF5E
:1029E000012CCDE91A01CDE91CAB3AD0DDE916ABDB
:1029F000DDE9180102460B46CDE908ABDDE916AB6F
:102A000001F08AFF52465B4601F086FF02460B4604
:102A1000DDE9080101F05EFDCDE91601DDE91801EF
:102A2000DDE9182301F056FDCDE91801DDE9182391
:102A3000DDE91801002292469B46DDE91623CDE927
:102A4000082352465B4601F07BFE02460B46DDE959
:102A5000080101F061FF6410CDE91601CDE918AB62
:102A600076E7DDE91C01DDE91E2302F08AF810B9E2
:102A700008F1FF3806E7DDE91E01DDE91C2301F05E
:102A80005FFECDE91E01DDE91E01DDE91A2301F03B
:102A900057FECDE91E01DDE91E01DDE9142301F039
:102AA000ADFD3FA3D3E90023CDE91E01DDE91E0101
:102AB00001F010FDCDE91E01DDE91E0101F0CAFFA4
:102AC000DDE91E232C46CDE90823054602F009F86E
:102AD00002460B46DDE9080101F032FE30A3D3E9DE
:102AE000002301F0F7FCCDE91E01DDE91E0101F034
:102AF000B1FFDDF84CA0834604E00BF5742B0BF519
:102B0000107B013DBBF1000FF7DB04E0ABF5742B4C
:102B1000ABF5107B0135254B9B45F7DC05E005F552
:102B2000742505F5107508F1FF38002DF7DB05E079
:102B3000A5F57425A5F5107508F101081B4B9D42FC
:102B4000F6DC1B4A4146904512DC0132194995FBDF
:102B5000F2F09BFBF2F201FB005501FB02BB0A23E2
:102B600003FB080803FB052503FB0BFB013E2BE0E1
:102B7000984529DD0A236FF0090098FBF3F800FB64
:102B800008110D4A0BF1050B02FB015191FBF3F506
:102B900000FB051102FB01BB01369BFBF3FB13E0BD
:102BA0000000000080842E41000014403F420F00CE
:102BB0009F8601006079FEFF40420F004FF0000B3E
:102BC0006FF004065D46D8463023214601F8063BE7
:102BD00040460793FFF718FD284604F10C01FFF764
:102BE00013FD584604F11201FFF70EFD079B053651
:102BF000E374002323750D9B43EA860600E000265C
:102C000016F0010F03D09C4B2C9D2B600DE019F0AA
:102C1000020F07D1994B9A4A09F00401002908BF15
:102C2000134600E0974B2C98036016F0020F40F01B
:102C3000BE8136F0010648BF0336B610BAF1610F07
:102C400019D00BDCBAF1450F60D0BAF1470F00F094
:102C50008E81BAF1410F40F088810CE0BAF1660F25
:102C600000F0BC80BAF1670F00F08181BAF1650F06
:102C700040F07B814AE00B990A9DDDF82CB021F0F1
:102C80007F43002223F4700342EA0500CBF30A528B
:102C90001946A2F57E73073B1AB950EA010508BF31
:102CA00000233D6885B919F0080F0DD120467649FB
:102CB000764C002A14BF31223022BAF1610F18BFBE
:102CC0002146FFF7B3FC10E0CDE900010293704903
:102CD000704B2046BAF1610F08BF1946002A14BF95
:102CE000312230222B46FFF7A1FCDDF82CA0644AEC
:102CF000CAF3076303F080035F490546DBB22C98F3
:102D0000002B14BF0B461346036051E13B68112BA7
:102D100004DD2F99113B0B6011233B603D680235A8
:102D200019F4006804D120462946FFF733FC361811
:102D3000637823703B6823B940F6080309EA03036C
:102D400013B12E23637000E001252F9A1368002B26
:102D500002DD3E2363550135B8F1000F07D019F0AD
:102D6000080F04D129462046FFF73FFC054604F82A
:102D700005A00135002E05F1010302DA76422D226D
:102D800000E02B22B6F57A7F62551D460ADB4FF430
:102D90007A7296FBF2F202F13001E1545D1C3E4B77
:102DA00003FB0266632E0ADD642396FBF3F303F153
:102DB000300262556FF0630202FB036601350A239D
:102DC00096FBF3F303F13002625530366FF00902DF
:102DD00002FB0363013563550135E9E0002E3D68D0
:102DE0005CDA76426B1C9E4208DD30232370023B86
:102DF00063702F9D3B682B60022538E00235AD1BC8
:102E0000122D03DD2F98133D0560132519F4006F73
:102E10000BD120462946FFF7BDFB30B10135013EFD
:102E200003D1637823702E230FE0012E01D02B46AF
:102E300011E02B4603E0E15CE2185170013B002BEE
:102E4000F9DC302323700135023B63700FE0E15C55
:102E5000E2189170013B002BF9DC30232370023B18
:102E600063700E33A3702E99013E02350E602F9AC7
:102E70001368002B4FDC65E03A4D00000A4D00005E
:102E8000884D0000084D00000C4D0000144D00005E
:102E90002B4D00001C4D000018FCFFFF0235AD1942
:102EA000122D09F400633ADD3BB920461321FFF7E8
:102EB00071FB10B10136142500E01325691E8E4206
:102EC00012DA2246002351780133B34202F8011B83
:102ED000F9DDA3192E225A703B68113B9E192F9BD6
:102EE0001E60002E2ED016E02246002350780133BB
:102EF0008B4202F8010BF9DB63193C2203F8012C29
:102F00002E980236761B2E23066063553B680135EA
:102F1000C3B12F990B603E236355013512E033B9DD
:102F200020462946FFF736FB08B101360135224617
:102F3000002351780133B34202F8011BF9DDA619D1
:102F40002E23737019F4006F08D019F0080F2FD1D9
:102F500029462046FFF749FB054629E03B683BBB75
:102F600019F0080F24D1013D22E04FF0670A3B68B9
:102F700049F40069002B01DC01233B603968112909
:102F800001DC013100E012212046FFF703FB3B6822
:102F900036189E4206DA16F1040F03DBF243D3180B
:102FA0003B601BE7013B3B60AAF1020AAEE603254A
:102FB000284623B0BDE8F08FF0B58FB006460C462A
:102FC00015460021282204A81F4600F002FF0A230C
:102FD00007936FF0004306930D4B04960026621E84
:102FE000029304A833460095019700F089F8069BE8
:102FF0000446013BB342069302DB049B1E7003E0D0
:10300000304604A900F009FF20460FB0F0BD00BF14
:10301000A12600000FB473B506AB53F8045B012181
:1030200001A82A460093FFF7C7FF041E13DD661CA4
:10303000304601F0A1F8019068B131462A46009B64
:10304000FFF7BAFF064B0199D86B224601F018FE34
:10305000019801F0F9F82046BDE87C4004B07047C3
:103060001410002010B500214FF4A0721E4800F08B
:10307000B0FEC02001F0EEF81C4C0021C022206000
:1030800000F0A7FE184B226803F5A0715A6228339E
:1030900018328B42FAD100201549134A00F06CFF18
:1030A00000214FF480534FF480620F4800F046FE39
:1030B00001201049104A00F05FFF00214FF48053B7
:1030C0004FF480620C4800F039FE022009490B4A97
:1030D00000F052FF094800214FF480624FF4805302
:1030E000BDE8104000F02ABE14100020101000208F
:1030F0003C4D00003E4D00003C10002064100020BC
:103100002DE9F04F4FF00008AFB0CDE90C23054694
:10311000389ADDF8E4A0474600F007BE252C02F1FE
:10312000010801D1253C1AE03846F917DDE90C23E6
:103130000137904271EB030380F2F685AB68013BE7
:10314000002BAB6005DB2B6803F8014B2B6000F014
:10315000EBBD2046294600F060FE00F0E5BD12F808
:10316000013F2B2B1E4602F101080DD004D8202B65
:103170000DD0232B14D10DE02D2B02D0302B0FD1ED
:103180000BE044F00104EAE744F00204E7E744F00E
:103190000404E4E744F00804E1E744F40074DEE7E3
:1031A0002A2B02D00023424612E0DAF800300AF15E
:1031B0000402002B02DA5B4284F0010418F8016B70
:1031C00092460DE0303E0A2101FB036312F8016BC9
:1031D0009B49891991F8801011F0200FF2D1904687
:1031E00023EAE3732E2E0B9326D1414611F8016B8F
:1031F0002A2E02D0434600220EE098F801600AF120
:103200000403DAF8002001F101080FE0303E0A2142
:1032100001FB02625E784346894908F10108891979
:1032200091F8801011F0200FF0D15346002A04DBF2
:1032300044F01004914602E053464FF000096C2E12
:1032400009D118F8016B6C2E06BF18F8016B44F019
:10325000600444F020044C2E01D0712E04D118F8E3
:10326000016B44F0600416E0682E09D118F8016B78
:10327000682E02D144F480740BE044F080040AE02C
:103280006A2E02D144F0400403E07A2E01D0742E5D
:1032900001D118F8016B672E19DC652E80F2578278
:1032A000582E00F06E810BDC452E00F0508204DCBD
:1032B000002E00F09F80412E07E0472E20D146E2ED
:1032C000632E19D000F3F681612E19D138E2702EE9
:1032D00000F0A98107DC6E2E00F0918000F3AC8134
:1032E000692E0DD1E6E1752E00F0C381782E00F035
:1032F0007181732E04D1A5E003F1040A1E6800E079
:103300009A46DDF82CB00BF1FF3914F0010B2BD1EC
:1033100004F40074002C0CBF202430243846F91724
:103320001DE00137DDE90623DDE90C01824273EB84
:1033300001010DDAAB68013B002BAB6004DB2B68AD
:1033400003F8014B2B6003E02046294600F065FDA1
:1033500001220023DDE90601801841EB0301B9F1E8
:103360000109CDE90601DCD53A46FB17DDE90C0180
:103370000137824273EB01010DDAAB68013B002B90
:10338000AB6004DB2B6803F8016B2B6003E0304675
:10339000294600F042FDBBF1000F00F0C5843A461B
:1033A000FB17CDE9062320E00137DDE90601DDE961
:1033B0000C23904271EB03030EDAAB68013B002B48
:1033C000AB6005DB2B68202203F8012B2B6003E0A8
:1033D0002020294600F021FD0122DDE9060100231D
:1033E000801841EB0301CDE90601B9F10109DBD5F4
:1033F00000F09ABC08F1FF389A4600F095BC14F032
:10340000400F03F1040A06D019683A46FB17C1E9D8
:10341000002300F089BC14F0200F0DD114F4807F3C
:1034200003D01B681F7000F07FBC14F0800F03D026
:103430001B681F8000F078BC1B681F6000F074BC24
:10344000894D00001E6803F1040AA44B002E08BF3A
:103450001E46304600F096FC14F0100F834602D052
:10346000CB45A8BFCB460B9B14F00100CBEB030967
:103470000B902DD104F400743A46FB17002C0CBFBE
:1034800020243024CDE906231FE00137DDE90601C1
:10349000DDE90C23904271EB03030DDAAB68013BCD
:1034A000002BAB6004DB2B6803F8014B2B6003E0BF
:1034B0002046294600F0B1FC0122DDE90601002387
:1034C000801841EB0301CDE90601B9F10109DCD512
:1034D0003A46FB17CDE9062300241FE0DDE906018B
:1034E000DDE90C23904271EB03030DDAAB68013B7D
:1034F000AB60002B305D04DB2B6803F8010B2B6005
:1035000002E0294600F089FC0122DDE906010023E2
:103510000134801841EB0301CDE906015C4504EB61
:103520000703DBDB0B99002900F0FD83DF171E4644
:10353000CDE906671F4620E00137DDE90601DDE938
:103540000C23904271EB03030EDAAB68013B002BB6
:10355000AB6005DB2B68202203F8012B2B6003E016
:103560002020294600F059FC0122DDE90601002354
:10357000801841EB0301CDE90601B9F10109DBD562
:10358000D2E314F0400F07D0073323F0070303F111
:10359000080AD3E9002303E003F1040A1A680023B0
:1035A00014F0800F01D092B203E014F4807F01D0B8
:1035B000D2B200234A494B4804F0080EBEF1000F76
:1035C0000CBF84468C4614F0100F00F0E78024F402
:1035D0000074E3E014F0400F07D0073323F0070333
:1035E00003F1080AD3E9002303E003F1040A1A688F
:1035F000002314F0800F01D092B203E014F4807F16
:1036000001D0D2B200233849364804F0080EBEF18A
:10361000000F0CBF84468C4614F0100F00F0C180E0
:1036200024F40074BDE003F1040A1A68DFF8C0E076
:103630000023DFF8B4C0BCE014F0400F07D007331C
:1036400023F0070303F1080AD3E9002303E003F1A1
:10365000040A1A68002314F0800F01D092B203E02C
:1036600014F4807F01D0D2B2002304F0080E1F4969
:1036700055E014F0400F07D0073323F0070303F1A0
:10368000080AD3E9002303E003F1040A1A680023BF
:1036900014F0800F01D092B203E014F4807F01D0C7
:1036A000D2B2002314F010017ED024F400744FF045
:1036B000000E7AE014F0400F07D0073323F0070321
:1036C00003F1080AD3E9002303E01A6803F1040AAE
:1036D000D31714F0800F0DD012B20FE0404D000050
:1036E000474D0000884D00004A4D00004D4D000040
:1036F000604D000014F4807F01D052B2D317002A2D
:1037000073F1000105DA524263EB4303DFF8C0C2F4
:103710000EE014F0020F09D1AB4904F0040EAB48DF
:10372000BEF1000F0CBF84468C4601E0DFF8A4C256
:1037300014F010013CD024F400744FF0000E38E077
:1037400014F0100F04BF44F010044FF00D0944F4BE
:10375000806404F01002002A08BF4FF0060914F03C
:10376000200103F107030CD023F0070303F1080A3B
:103770004FF0000ED3E90023CDE9282300220023D7
:103780000AE023F0070303F1080A8E46D3E9002379
:10379000CDE9282300220023F4460AE0DFF838E2CE
:1037A00007E0DFF838E204E08E46DFF820C200E0F0
:1037B0008E46DDE90C01C01B61EBE771CDE9060126
:1037C0004FF0FF302B902A90CDF8B490CDF8B0C0D8
:1037D000013071464FF0550C0DF1800E0EF800C00F
:1037E00001302028F6D114F4826F8E4601D11F38A3
:1037F0002D90672E14DC652E80F2C280472E00F0DB
:10380000BF8006DC412E00F0BB80452E40F0C88012
:10381000B6E0612E00F0B480642E13D0582E0BE079
:10382000702E13D005DC692E0CD06F2E40F0B880BE
:1038300005E0752E06D0782E40F0B28006E04FF0FD
:10384000000928E04FF00009BE4694E04FF000095F
:1038500071460EE002F00F000E5C4FEA121E20A827
:1038600000F809604EEA0376180909F101093246A9
:10387000034652EA0306EDD194E002F0070030302F
:1038800020A9D60801F8090046EA4370D90809F1D1
:10389000010902460B4652EA030BEED182E0900882
:1038A0009E0840EA83711891199659084FEA320030
:1038B000DDE91867801941EB0701070947EA017B39
:1038C0000E09CDF840B01196DDE91067801941EB83
:1038D0000701070A47EA016B0E0ACDF848B01396B4
:1038E000DDE91267801941EB0701070C47EA014B3C
:1038F0000E0CCDF850B01596DDE91467801941EB38
:1039000007014FF0000B1C91CDF874B0DDE91C6786
:10391000801941EB0701C70847EA417BCE084FF009
:103920000A0C0F96ABFB0C67CDF838B0DDF83CB055
:1039300006200CFB0B770021801841EB0301801B54
:1039400061EB0701060946EA01774FEA111B16975A
:10395000CDF85CB0DDE91601DDE90E67801941EBB9
:10396000070130320CFB102C20AB03F809C00246D3
:1039700009F101090B4652EA030790D1774611E09D
:103980002CAB00932DAB01932BAB02932AAB03938B
:10399000304628A920AA23463A9EB047814601E036
:1039A0004FF0000914F480601B9019D000232D9370
:1039B0002B9B002B01DD013B2D932A9B002B16DD59
:1039C0002D9A9B18013B11E00A4D0000884D000024
:1039D0003A4D0000084D00004F4D0000604D0000C2
:1039E0002D9B1B99B3EB090348BF0B462D932C98D5
:1039F0002D9E00F0C7F90B9A4E44961B361A14F40C
:103A0000007B0B960AD0002600E05E463046F11798
:103A1000CDE90801C446CDF87C9045E014F0010FD3
:103A2000F3D15E4617E03246F317DDE906010136B1
:103A3000824273EB01010EDAAB68013B002BAB60F5
:103A400005DB2B68202203F8012B2B6003E02020EC
:103A5000294600F0E2F90B9A013A0B92E3D5D5E73B
:103A60000136DDE90889DDE90623904579EB03039A
:103A700010DAAB68013B002BAB6004DB2B6803F86A
:103A8000010B2B6006E02946CDF814C000F0C5F903
:103A9000DDF814C00122DDE90889002318EB0208D3
:103AA00049EB0309CDE908892C9B13F8010B2C93F2
:103AB0000028D5D114F00104DDF87C90E0461F9475
:103AC0002FD13046F117BBF1000F0CBF4FF0200B88
:103AD0004FF0300BCDE908010B9C1FE00136DDE90A
:103AE0000823DDE90601824273EB01010DDAAB68C0
:103AF000013B002BAB6004DB2B6803F801BB2B60A0
:103B000003E05846294600F088F90122DDE9080162
:103B10000023801841EB0301CDE90801013CDDD50C
:103B20000B941B9909B1002478E03246F317CDE9D4
:103B3000082397E020AB13F804C03046F117BCF11E
:103B40003C0FCDE9080124D0BCF13E0F4ED147E037
:103B50000136DDE90823DDE90601824273EB01014C
:103B60000EDAAB68013B002BAB6005DB2B68302223
:103B700003F8012B2B6003E03020294600F04DF9BB
:103B80000122DDE908010023801841EB0301CDE9A2
:103B900008012B9B013B002B2B93D9DA3DE001362A
:103BA000DDE90823DDE90601824273EB01010EDA4B
:103BB000AB68013B002BAB6005DB2B68302203F8C0
:103BC000012B2B6003E03020294600F026F901226A
:103BD000DDE908010023801841EB0301CDE908016C
:103BE0002A9B013B002B2A93D9DA16E00136DDE946
:103BF0000823DDE90601824273EB01010DDAAB68AF
:103C0000013B002BAB6004DB2B6803F801CB2B607E
:103C100003E06046294600F000F901344C4589DB99
:103C200053E00136DDE90823DDE90601824273EB4A
:103C300001010EDAAB68013B002BAB6005DB2B68A2
:103C4000302203F8012B2B6003E03020294600F0DE
:103C5000E4F80122DDE908010023801841EB0301AB
:103C6000CDE908012D9B013B002B2D93D9DA32467B
:103C7000F317CDE9082325E00136DDE90801DDE988
:103C80000623904271EB030309F1FF3911DAAB68A7
:103C9000013B002BAB6020AB06DB13F809202B683F
:103CA00003F8012B2B6004E013F80900294600F00B
:103CB000B4F80122DDE908010023801841EB03017B
:103CC000CDE90801B9F1000FD6DC1F99002928D0F1
:103CD0003246F317CDE908230B9C20E00136DDE9DD
:103CE0000801DDE90623904271EB03030EDAAB68AD
:103CF000013B002BAB6005DB2B68202203F8012B76
:103D00002B6003E02020294600F087F80122DDE93E
:103D100008010023801841EB0301CDE90801013CB3
:103D2000DCD5BF1900E01F4642461478002C7FF412
:103D3000F5A9B84638462FB0BDE8F08F70B5C46815
:103D400014F0030F17D0B2F5007F09D0B2F5806FE1
:103D500003D0B2F5807F0ED102E0416A012303E077
:103D6000074D5E1EAE4208D8224301610160C36167
:103D7000C260002070BD012070BD012070BD00BF79
:103D8000FEFFFF0010B5411C04E010F8013B0BB929
:103D9000401A10BD10F0030FF7D1024650F8043B53
:103DA000A3F1013424EA030414F0803FF5D013F0AA
:103DB000FF0F0BD013F47F4F06D013F47F0F01D009
:103DC000131D04E0D31C02E0931C00E0531C581A9E
:103DD00010BD00F030BFC36810B523F02003C360EE
:103DE000436A82695B6804469A420FD000F0FBF890
:103DF000E368626A23F4405323F0100343F0100396
:103E0000E3605368A361236993602360E36823F44C
:103E1000804323F04003E36010BDF8B5CB6806464D
:103E200023F4002213F0200F0C46CA6002D008468B
:103E3000FFF7D1FFA168B1F1FF3F10DAE26812F499
:103E4000007F0CD16FF001035B1AA360236842F47A
:103E50009032F0B2E26003F8010B2360F8BDE56830
:103E600041F28A0205EA0202022A07D0002345F045
:103E70008005A360E5604FF0FF30F8BD4AF2100303
:103E800005EA0303B3F5004F0BD10021204600F0F3
:103E900045FAE36813F0200F02D02046FFF79BFF9E
:103EA000E56845F4903717F4706FE7601DD16069DD
:103EB00000F0DAFE58B117F4806F08D0636A45F459
:103EC0009237236123600123E361E7600DE04FF443
:103ED000805000F0BFF94FF48053E361E36847F48A
:103EE00000673B4320612060E36017F4106F216896
:103EF000256919D0636A9B6899422CBFC5EB010103
:103F0000C5EB030129B12846224600F0F1F800284C
:103F10002FD1636A6A1C9A602260E269F0B2511E76
:103F2000A160DA602870F8BDF6B201F8016B636A2F
:103F300021609A6891422CBFC5EB0101C5EB0201DB
:103F4000E26917F4806FDA6003D10A2E01D0914242
:103F50000DDB9D6000232560A3602846224600F00B
:103F6000C7F800280CBF30464FF0FF30F8BD304690
:103F7000F8BD4FF0FF30F8BD70B50E46054610464F
:103F8000144600F077F93378722B04D0772B09D0E0
:103F9000612B25D102E00023012205E0082348F22D
:103FA000020201E00423022216F8011F2B2902D08D
:103FB00062290AD104E042F0030243F00203F3E76E
:103FC00042F0040243F00103EEE713F0080FE26051
:103FD000656106D020460021022200F09FF900E032
:103FE0000024204670BD38B501680446436A05695F
:103FF000C0689B6820F40022E26000F08202022A7E
:1040000017D110F4803019D0994238BF1946A9420F
:1040100005D02846491B224600F06AF860B9636A59
:1040200000209D60E368256023F48033A060E36096
:1040300038BD4FF0FF3038BD4FF0FF3038BDF8B518
:1040400016460023002204460D4600F052FD20B122
:104050000023336000200021F8BDC5F30A53A3F507
:104060007E72063AA3B9C5F313032146CF0F184653
:1040700047EA430323F07F43490010F4002F23F461
:10408000700303D063F313050C4601E0013AEDE73A
:1040900040F2FE3363F31E55326020462946F8BDD8
:1040A00070B500231646002204460D4600F021FD9F
:1040B000A0B9C5F30A53F61840F2FE739E4206DD1E
:1040C000094B22221A60094BD3E9000170BD002E72
:1040D00007DD66F31E552046294670BD00200021ED
:1040E00070BD0020002170BD08100020104F00009E
:1040F0002DE9F041D768064617F4801F0D46144697
:10410000D2F8148005D0404600F0ABFD47F0100710
:10411000A061184B07EA030393B14046A16900F080
:10412000A9FD002807DAE3684FF0FF3043F0800371
:10413000E360BDE8F08127F4003727F01007E7605F
:104140002A464046314600F09BFDA369A84214BFB1
:104150004FF0FF300020ED1820F00043ED1AA5616C
:1041600028B1E3684FF0FF3043F08003E360BDE81F
:10417000F08100BF10000200324B2DE9F041C51C58
:104180001C68AD08984600285AD000273FE02168F7
:10419000B1F1805F39D1A6683368B3F1805F63689D
:1041A00006D172689B1803336360B368A3602EE086
:1041B000AB4206D120464FF0005340F80C3BBDE81F
:1041C000F081EA1C934210D920464FF0005240F88B
:1041D0000C2B5B1B00EB8502033B6560A26040F883
:1041E000251053609660BDE8F08176B99B00C01A37
:1041F00000F048FDB0F1FF3F1ED04FF000532360A8
:10420000656004F10C00BDE8F0812746A468002C2D
:10421000BDD10C3000F036FDB0F1FF3F0FD04FF0B4
:10422000005303604560846017B9C8F8000000E0DF
:10423000B8600C30BDE8F0813046BDE8F081204622
:10424000BDE8F081541100204FF0805340F80C3C41
:104250007047000010B5FFF78FFF044628B90449E6
:10426000172200F00DFD00F0F8FC204610BD00BF45
:10427000714D00002DE9F041C66886B016F0030FBD
:104280000446D0F814800769456A27D016F0080F55
:1042900017D100F029F8404600F0E0FC16F4006F5A
:1042A00002D03846FFF7D0FFB60DB60516F1A54F80
:1042B00007D101A8216A142200F0DFFC01A800F058
:1042C000DDF800211822606AFFF783FD20460021F7
:1042D0002822FFF77EFD6562002001E04FF0FF30ED
:1042E00006B0BDE8F081000070B5044618B1BDE825
:1042F000704000F0CDB80546074B282000FB043085
:1043000000F0C6F80134002818BF4FF0FF35082C24
:10431000F2D1284670BD00BF141000202DE9F041F5
:10432000414BC668044606EA03030D461746D0F81B
:104330001480002B71D0404600F096FC00286CD110
:10434000012F04D0022F07D0002F27D065E0204690
:1043500000F06CF82D1821E0404600F082FC0028A7
:1043600006DAE368012043F08003E360BDE8F081F2
:10437000626AA169276893689F422CBFCB19CB184A
:1043800021695B1AE16811F0200F03D05268934253
:10439000B8BF13468342ACBFED182D18002D3FDB8C
:1043A00016F4005F05D0636A22689968914238BFAD
:1043B0009A60A3699D420EDB606A2168826891421F
:1043C00038BF11462269CF18BF1ABD4203DCC0684E
:1043D000C718BD4207DB0023A3606360636A46F031
:1043E00020065D6011E016F0020FC3EB05051CBF4F
:1043F000C0EB0500A06016F0010F02D0511A491958
:1044000061605519256026F0200626F4022626F460
:104410008256E6600020BDE8F0810220BDE8F08110
:104420000220BDE8F08100BF03001000C36813F054
:10443000030F05D1104B21221A604FF0FF30704757
:1044400013F4002F03F020030BD01BB1436A58680C
:1044500001387047036901688269DB4388181818BE
:10446000704713B1436A5868704783690268D2186D
:104470000369D01A704700BF0810002010B5044629
:10448000FFF780FC01462046BDE8104000F0EFBB7E
:10449000C36870B513F00304054619D013F0200F5C
:1044A00004D0436A5E68FFF796FC04E083690668FF
:1044B000F6180369F61AEB68284623F44053EB60BC
:1044C000FFF791FD3146044600222846FFF726FFFC
:1044D000204670BD2DE9F04F0E0D7605760D0F4686
:1044E00014461D469C46002E5CD040F2FF718E4261
:1044F00058D01B0D5B055B0D002B53D08B4251D068
:1045000085EA070127F07F4727F470074FEAC22AA0
:1045100047F48017A7FB0A89AAFB00ABF618530DD6
:1045200043EAC52C00251BEB080445F100054CF0BF
:10453000004CE0FB0C45002315EB090243F100039E
:10454000E7FB0C23B3F5801FA6F5806601F0004160
:1045500044EA9A0406D2921843EB0303E00F0243A5
:10456000640000E00136E00F121843F10003184622
:10457000B4F1004F40F2FD7308BF22F001029E42E9
:1045800006D841EA00033605F1181046BDE8F08F61
:10459000002EA4BF41F0FE4141F4700100221046FC
:1045A000BDE8F08F8CEA07026FF400137F009F4292
:1045B00002F0004206D8B3EB4C0F06D311460020A0
:1045C000BDE8F08F17F5001F0BD14FEA4C0C1CF51E
:1045D000001F06D87F0D7F051FB14FEA5C535B05B6
:1045E0001BB900200449BDE8F08F42F0FE4141F4C0
:1045F00070010020BDE8F08F0000F87F2DE9F04148
:104600000D461F4619462B0D5B055B0D1646002B0C
:104610005AD040F2FF77BB4256D00E0D7605760D8C
:10462000002E51D0BE424FD003F57E7305339B1B45
:10463000460D81EA050C4FEA525846EAC525C702E5
:1046400048EAC12845F000463846314648F0004760
:10465000D602B04271EB070203D349084FEA30009B
:1046600001337F084FEA3606352500225200B0425A
:1046700071EB070804D3801B61EB070142F00102D4
:10468000001841EB0101212D08BF1446013DEDD179
:10469000B04271EB070502D3013208BF013440F28A
:1046A000FD718B420CF0004C06D81B059C440CEBB2
:1046B00004011046BDE8F081002BA4BF4CF0FE4C75
:1046C0004CF4700C614632E06A0012F5001F03D80A
:1046D000480010F5001F03D900201849BDE8F081FB
:1046E00041EA05035B005B0D5B050BB913490FE065
:1046F000530D81EA05055B0505F000450BB9294618
:1047000006E0430D5B0533B945F0FE4141F470010D
:104710001846BDE8F08110F5001F04D045F0FE41B9
:1047200041F4700103E012F5001F03D02946002078
:10473000BDE8F08100200149BDE8F0810000F87F6C
:10474000F0B51F461646134697EA010204468C460A
:104750003D4606D507F100433246BDE8F04000F083
:10476000DBB8B94203D3B0420BD8B94209D183EACE
:10477000040402F1004263408CEA020C554083EAD3
:1047800004044FEA1C5626F4006140F2FF70814297
:10479000A6EB155200F0B0808A4200F0A3802CF006
:1047A0007F4C25F07F452CF4700C25F470051F2AF2
:1047B0004CF4801C45F4801554D835FA02F1C1EB55
:1047C0000C0C33FA02F1C2F12002954045EA0101D6
:1047D000611AA14288BF0CF1FF3C13FA02F505D023
:1047E0006D424C1E19B90CF1FF3C00E00C461CF464
:1047F000C01F55D1E30FED0F43EA4C0C45EA4404CA
:1048000054EA0C0301D0B31E06E0194657E0220E0D
:1048100042EA0C2C2402083B5FEA5C32F7D05FEAE4
:104820005C4204D1220F42EA0C1C2401043B5FEAE3
:10483000DC4204D1A20F42EA8C0CA400023B5FEAE6
:104840001C5204D1E20F42EA4C0C6400013BF60A10
:10485000B6EBD32F03D11B0503EB0C014AE0F107A4
:104860000020F0BD352A1BD8203A35FA02F1611A32
:10487000A142C2F1200088BF0CF1FF3C854033FA11
:1048800002F21B0645EA020502D045F0FF0500E0F2
:104890002DB16D424C1E19B90CF1FF3C00E00C46E5
:1048A0001CF4801F0DD1013E730507D0E30F43EACE
:1048B0004C0CEB0F43EA44046D0002E0310518464E
:1048C000F0BD002D2CF4801C08DA013408BF0CF177
:1048D000010CB5F1004F08BF24F0010436050CEBC4
:1048E000060107E040F2FE739A4205D80AB9114664
:1048F0000AE061462046F0BD5FEA0C3302D000209A
:104900000449F0BD12B903491046F0BD6146204686
:10491000F0BD00BF0000F87FF0B51F4616461346F5
:1049200097EA010204468C463D4606D507F100434E
:104930003246BDE8F040FFF703BFB94209D286EA2C
:10494000000486EA040381EA020C87EA020583EA8E
:1049500004044FEA1C5121F4006040F2FF729042BF
:104960006DD0A1EB155282425DD02CF07F4C25F02A
:104970007F452CF4700C25F470051F2A4CF4801C24
:1049800045F480150FD835FA02F0844433FA02F06A
:10499000C2F1200295400543641928BF0CF1010CB7
:1049A00013FA02F513E0352A11D8203A35FA02F04D
:1049B0002418C2F1200028BF0CF1010C854033FA05
:1049C00002F21B0645EA020518BF45F0FF051CF47C
:1049D000001F18D0013408BF0CF1010C0DB924F0F0
:1049E00002040B0503EB5C036FF40012B2EB430F00
:1049F00005D34FEACC7C19464CEA5400F0BD4B1C61
:104A000019050020F0BD0139002D08DA013408BF76
:104A10000CF1010CB5F1004F08BF24F001040B05A7
:104A20000CEB030109E040F2FE739A4207D81AB971
:104A30000CF000411046F0BD61462046F0BD5FEA33
:104A40000C3302D000200249F0BD61462046F0BD83
:104A50000000F87FCA0242EA50500A0DC2F5826295
:104A60000E3240F00040D040FF2A11D912F4E06F1E
:104A700001D14042704711F0804009D04A0012F540
:104A8000001F04D8C80F00F1004001387047002013
:104A9000704710B90346024620E0030C01D1000420
:104AA00001E001F18071030E01D1000201E001F586
:104AB0000001030F01D1000101E001F58001830F26
:104AC00001D1800001E001F50011002801DB400068
:104AD00001E001F5801101EBE02342051046194683
:104AE000704710F0004118BF404201F18041FFF7CC
:104AF000D0BF70B50E461D461946730053EA000438
:104B000002D152EA450409D08E4209D1904209D11E
:104B100013F5001F8CBF0020012070BD012070BD67
:104B2000002070BD002070BD70B50E461D461946B0
:104B300055EA0603144608D46B0013F5001F18D875
:104B4000B5421AD815D182420FE0740014F5001F47
:104B50000FD86B0013F5001F0BD8044301D113438A
:104B600009D08E4209D80AD1904294BF002001207A
:104B700070BD002070BD184670BD012070BD0020C2
:104B800070BD70B50E461D4655EA060314460BD49B
:104B90006B0013F5001F1BD8B5421BD818D18242F9
:104BA00034BF0020012070BD740014F5001F0FD821
:104BB0006B0013F5001F0BD8AE420BD801D1904209
:104BC00008D2204308D11A4314BF0020012070BD31
:104BD000002070BD012070BD002070BD70B50E4674
:104BE0001D4655EA060314464FEA46030AD413F558
:104BF000001F1AD8AE421AD817D1904234BF0020F5
:104C0000012070BD13F5001F0FD86C0014F5001FB4
:104C10000BD8B5420BD801D1824208D2034308D148
:104C2000224314BF0020012070BD002070BD012070
:104C300070BD002070BD0346043A08D3C9B241EAF2
:104C4000012141EA0141043A43F8041BFBD204323A
:104C500002D0013A9954FCD17047FEE74FF0FF3083
:104C600070474FF0FF3070474FF0FF3070474FF004
:104C7000FF3070474FF0FF3070474FF0FF30704704
:104C8000104670470C4B70B51A680AB90B4A1A6087
:104C9000094DC61C2C6826F00306A619304600F004
:104CA00011F808B92E6004E0054B0C221A604FF091
:104CB000FF34204670BD00BF581100205C11002059
:104CC00008100020084A6B46934203D9984201D34A
:104CD00001207047054B0BB918467047984234BF06
:104CE00000200120704700BF5C1100200000000080
:104CF00068656C6C6F20776F726C640A000000004E
:104D000025642C2025640A002B00200030782563C0
:104D10007025640030582563502564003078256381
:104D20002E252E2A6C6C7870256400305825632E51
:104D3000252E2A6C6C58502564002D0072007700D7
:104D4000286E756C6C2900305800307800300030C7
:104D500031323334353637383941424344454600E1
:104D600030313233343536373839616263646566E1
:104D7000002A2A2A205F437379735F616C6C6F632A
:104D8000206661696C65640A000000000000000094
:104D90000000000000000000000000000000000013
:104DA0000000000000000000000000000000000003
:104DB00000000000000000000000000000000000F3
:104DC00000000000000000000000000000000000E3
:104DD00000000000000000000000000000000000D3
:104DE00000000000000000000000000000000000C3
:104DF00000000000000000000000000000000000B3
:104E000000000000000000000040404040404040E2
:104E1000404041414141414040404040404040408D
:104E20004040404040404040400502020202020231
:104E30000202020202020202022020202020202080
:104E40002020200202020202020290909090909094
:104E50001010101010101010101010101010101052
:104E600010101010020202020202888888888888C6
:104E700008080808080808080808080808080808B2
:104E800008080808020202024000000000000000BA
:104E90000000000000000000000000000000000012
:104EA0000000000000000000000000000000000002
:104EB00000000000000000000000000000000000F2
:104EC00000000000000000000000000000000000E2
:104ED00000000000000000000000000000000000D2
:104EE00000000000000000000000000000000000C2
:104EF00000000000000000000000000000000000B2
:104F000000000000000000000000000000000000A1
:104F1000FFFFFFFFFFFFEF7FFFFFFFFFFFFFFFFF31
:104F2000FFFFFFFFFFFFFFFFFFFFFFFFFFFFFFFF91
:104F3000FFFFFFFFFFFFFFFFFFFFFFFFFFFFFFFF81
:104F4000FFFFFFFFFFFFFFFFFFFFFFFFFFFFFFFF71
:104F5000FFFFFFFFFFFFFFFFFFFFFFFFFFFFFFFF61
:104F6000FFFFFFFFFFFFFFFFFFFFFFFFFFFFFFFF51
:104F7000FFFFFFFFFFFFFFFFFFFFFFFFFFFFFFFF41
:104F8000FFFFFFFFFFFFFFFFFFFFFFFFFFFFFFFF31
:104F9000FFFFFFFFFFFFFFFFFFFFFFFFFFFFFFFF21
:104FA000FFFFFFFFFFFFFFFFFFFFFFFFFFFFFFFF11
:104FB000FFFFFFFFFFFFFFFFFFFFFFFFFFFFFFFF01
:104FC000FFFFFFFFFFFFFFFFFFFFFFFFFFFFFFFFF1
:104FD000FFFFFFFFFFFFFFFFFFFFFFFFFFFFFFFFE1
:104FE000FFFFFFFFFFFFFFFFFFFFFFFFFFFFFFFFD1
:104FF000FFFFFFFFFFFFFFFFFFFFFFFFFFFFFFFFC1
:04500000002D31014D
:040000030000216573
:00000001FF
