:020000040000FA
:1000000000200020190100001D0100001D0100005A
:100010001D0100001D0100001D0100000000000086
:100020000000000000000000000000001D010000B2
:100030001D010000000000001D0100001D01000066
:100040001D0100001D0100001D0100001D01000038
:100050001D0100001D0100001D0100001D01000028
:100060001D0100001D0100001D0100001D01000018
:100070001D0100001D0100001D0100001D01000008
:100080001D0100001D0100001D0100001D010000F8
:100090001D0100001D0100001D0100001D010000E8
:1000A0001D0100001D0100001D0100001D010000D8
:1000B0001D0100001D0100001D0100001D010000C8
:1000C0001D0100001D010000A5100000DFF80CD08C
:1000D00001F04AF800480047ED0000000020002031
:1000E0004FF40050D0F800D0D0F804F000F007FB37
:1000F0000848006820B100F0040000F013F807E0A1
:1001000000F096FB4FF4005000F008FCFFF7E8FF0A
:10011000FEE700000000002001480047FEE7FEE780
:10012000CD00000008B5804600F05CF900F06EFCE0
:10013000A94DAA48A94F00902C460020183FAB4675
:1001400026464FF00A09B8F1000F03D00721C7E98E
:10015000009102E00221C7E90010F8603861804692
:100160004FF0100AB8603868032806D040F2074103
:10017000994800F05BFC88B916E00721974800F029
:1001800055FC88B10098007803280AD09249934A18
:100190000020135C0B54401C0728FADB0120F86098
:1001A00006E00120386101E0C7E9009AF86858B319
:1001B0002878052804D007280AD0082820D023E072
:1001C000C7F80C8039788BF800105846012197E069
:1001D0003021C7F80C8031800121F17086F802804F
:1001E000072070608802B0607D480068A0F501506B
:1001F000F06006F1100000F031FB302130467FE066
:10020000C7F80C8000F076FB3868801E0928AAD257
:10021000DFE800F0064C057D920505A44300A2E747
:10022000F86800289FD0287803280BD001280FD029
:10023000022898D1C7F80C80C7F81480B5F80100DF
:10024000B8B11EE0C7F80C803979404621704FE004
:10025000C7F80C80B5F80510E81D00F0CBF8786001
:1002600010B1C7F800907EE70320C7F80880386017
:1002700079E74FF48061E81DC7F8088000F0B5F910
:100280007861E81D796900F0E0FB08B9C7E9009AD8
:100290007869B0F5806F71D092E0F8680028BED020
:1002A00028780328CED00428B9D161E0386918B184
:1002B00000980078032804D0F8680028AFD0287888
:1002C00054E0C7F81080B86858B1B5F80510E81DBB
:1002D00000F0E7F87860B868401CB860786818B13A
:1002E00036E000F0C0F8F5E7052135E02070404623
:1002F000A4F80100E0703978217160710621204670
:1003000000F0A3FB00288AD1C7E9009A2BE7F86820
:10031000002884D02878012804D0062828D0032873
:10032000A1D18FE7C7F80C80B5F8050008B103200C
:1003300000E00620386016E7F8680028BFD028786B
:100340000328BCD1C7F80C8000F0FBF8786010B12E
:10035000C7F80090CAE702213960C7E7F8680028AB
:1003600086D0287802280AD00328DAD00628CDD1F2
:100370000220C7F80C80C7E90008F4E624E0C7F8BB
:100380000C80C7F81480B5F80100B968884206D11E
:100390004FF48061E81D00F061F9786102E0082007
:1003A000C7E90090E81D796900F04FFB08B9C7E97B
:1003B000009A7869B0F5806F06D038680A28A5D011
:1003C0000220C7E90008CEE60920C7E90008B8689E
:1003D000401CB860C7E60000640000202400002034
:1003E0000400002010B500F0C0FAB5494FF0FF300E
:1003F000086010BD10B54FF4806399422BD1B14A0B
:100400005FF0000110F8014B491C02F8014B502924
:10041000F8DBAC480188B1F5807F1CD1AA49026B9A
:100420000968A1F501518A4215D8C17D332912D13D
:10043000017E55290FD1417E31290CD1A34A816B10
:100440001140A34A914206D1016CB1F5005F02D17F
:10045000416C994201D0022010BD483003C800F021
:100460008FFA002010BD70B59A4D0121284600F08A
:10047000B2FA954C01212068103800F0ACFA2868D7
:10048000401C04D1206850F8100C401C03D000F030
:1004900067FA052070BD8A494FF4005008600020BB
:1004A00070BD2DE9F0410E460746B1F5806F04D0CE
:1004B00000F056FA0220BDE8F0818248804C016BC2
:1004C00020680A4601F50051814203D97E4B1B6822
:1004D000984203D300F044FA0820ECE700F580636B
:1004E0008B4203D9151A05F5005500E03546012168
:1004F00000F071FA2068014600F5806207E00B68A1
:100500005B1C03D000F02CFA0520D4E7091D9142B2
:10051000F5D3014601232A46384600F039FA002077
:10052000216808E00A5C3B5C9A4203D000F018FAAC
:100530000720C0E7401CA842F4D38819206000209F
:10054000B9E72DE9F0415F4D2F6B00F0CCF85E4C20
:100550002068A0F5015087423BD8002606E000BF86
:100560004FF40050805D00F0BBF8761CBE42F7D31C
:1005700000F0B2F8696B81422BD121680123382247
:100580004039504800F004FA524E4E4801230422EC
:1005900031463C3000F0FCF921684A48012304222E
:1005A0000839383000F0F4F92168464B0A464039E2
:1005B00000201C5C0F5CBC420BD1401C3828F8DBCF
:1005C0003068E96B814204D152F8080CA96B814272
:1005D00003D000F0C5F907206DE739494FF0FF302F
:1005E000086000F0BDF9002065E7F0B50246364826
:1005F000344C0368403B00201D5C15541D5C2554A1
:10060000401C3C28F8DB334D0023EE5C1654EE5CB6
:100610002654401C5B1C042BF7DB2A4C4FF400557E
:10062000EB10C4E9105304F140060023F75C1754A3
:10063000401C5B1C082BF9DBA526F123C4E91263DF
:100640001650001D1350001D002301E01354401CE0
:100650008842FBD31A4805600846F0BD70B50546D0
:1006600018481A4B826B1A40194B9A4213D1026BED
:1006700015480068A0F5015082420CD8104C02F5D4
:1006800000532068834206D346189E4205D9131AA8
:1006900013F5005302D1002070BD0B46002202E08A
:1006A000865CAE54521C9A42FAD3FF208A4202D290
:1006B000A854521CFAE7206818442060084670BD10
:1006C0002C0000206C04002004000020FF0000FF2C
:1006D0005A0000A5FCFF03009248006AC04370471F
:1006E0009049086170478F48042141603021816042
:1006F0004115816081154160032141607047F0B56B
:100700008948A5210163DD21016388486FF000411C
:100710004162072141638648D0F88010854B11F073
:10072000300F3BD0D0F88010C1F30111012938D02F
:10073000D0F88010C1F30111022934D04FF4802188
:100740001960D0F880104FF4005411F4407F7A49BA
:100750002BD0D0F88020C2F30122012A27D0D0F874
:100760008020C2F30122022A24D0A2000A60734A28
:100770007349002515600D60D0F88050714EED432F
:10078000AF074FF0010518D0D0F8800000F003004B
:10079000022819D0D6F8B000800418E048F204010D
:1007A000CEE76949CCE76949CAE70C60DFE74FF457
:1007B0008042DBE74FF4C042D8E7D6F8F001C0052D
:1007C00005E00D60156004E0D6F850010007002830
:1007D000F7DA2068401C02D06068401C03D1106822
:1007E00040F0040010601868594C50F8081C214073
:1007F000584CA14217D11038D0E90045FFF773FFDC
:100800001868A0F5015084420DD80020454B04E043
:100810004FF40051095C1961401CA042F8D3FFF766
:100820005BFFA84203D0106840F004001060F0BDE8
:100830003D48A5210163EE2101633A48042181600E
:100840003021816041158160811581600321416003
:100850003648002101620221016370473449C031EA
:1008600091F83020027091F83120427091F83220D6
:10087000827091F83320C27091F82020027191F8B3
:100880002120427191F82220827191F82320C271B7
:100890000A7C02724A7C42728A7C8272CA7CC27270
:1008A0000A7802734A7842738A788273C978C1736E
:1008B00029490A7802744A7842748A788274CA781C
:1008C000C2740A7902754A7942758A798275CA7941
:1008D000C2750A7A02764A7A42768A7A8276CA7A29
:1008E000C2760A7B02774A7B42778A7B8277C97B12
:1008F000C17770474FF0E0204BF67F314161002116
:1009000081610521016100210269D203FCD5491CE6
:100910000A29F9D305494020486670470F49086005
:1009200070470000008002400000034000D00240F9
:100930000090044004000020080000200000002077
:100940003000002000A0024004000100040002006A
:10095000FF0000FF5A0000A58003040008ED00E03E
:100960002648002101604160704700B5FFF7F8FF9D
:1009700023494FF00040486022490420486600BDEA
:1009800080F001021D4881F00101C0E9002170479B
:10099000F0B51A4F064600203D781B4C5D4005F02F
:1009A000FF0C15E0358800F1010E964501D345F4A2
:1009B0007F45C4F8A01084F8C0C097F804E08EEA20
:1009C000030E84F8C0E0C4F8B050B61C891C801C2B
:1009D0009042E7D3F0BD0C49C1F8A0004FF480204D
:1009E0004860A52281F8C020F12281F8C0200022B1
:1009F000C1F8B02088601046704700003400002025
:100A000000F0024000D0024000E0024016480321FE
:100A10008160022141601549802008601448016806
:100A200021F00701091D016000F050BB08B500224C
:100A3000ADF8002089B200F0CDF9684600F0D9F990
:100A40000028FAD0BDF8000008BD08B50022ADF8B6
:100A5000002089B200F0D6F9684600F0ECF90028D1
:100A6000FAD0BDF8000008BD00E002401483014048
:100A700000D00240AB4810B50178012905D1C188EA
:100A800019B9418809B9808808B100F0ADFAA648C3
:100A90000078062808D0A548016841F040010160AF
:100AA000016841F00801016010BDA14810B500784F
:100AB00004280AD19B480178812906D1418821B9AF
:100AC000818811B9C088012802D000F08DFA05E0B4
:100AD000994998480860994901200880924801780E
:100AE000062909D091490A6842F040020A600221B1
:100AF000017093490020088010BD8D4910B5087819
:100B0000022809D08748027832B9828822B9C2887F
:100B100012B94088012802D900F066FA06E010F008
:100B2000FF0F01D0042000E0032008707E48007809
:100B3000062808D07D48016841F040010160016845
:100B400041F00801016010BD764810B50178802998
:100B500006D1418821B9818811B9C088012802D005
:100B600000F042FA0FE072480121734A0078734B9B
:100B7000042802D0032803D005E06E48801E00E060
:100B80006C481060198068480178062909D06749C7
:100B90000A6842F040020A600221017068490020A0
:100BA000088010BD70B55F48644A66494488624851
:100BB000250A052D0FD2DFE805F00E03050B2600F0
:100BC00061490EE001608878C97800EB01200AE0F5
:100BD000E1B2022902D900F007FA05E05B4B53F8B5
:100BE00021100160087810804F480178062909D04B
:100BF0004E490A6842F040020A60022101705049E1
:100C00000020088070BD4F4B09330360487AEAE743
:100C100010B5444C207838B9A08828B9E08818B9B4
:100C2000608808B17F2801D900F0DEF93E4907202D
:100C30000870A07810F0FF0F3D4801D0032100E0BC
:100C4000022101703948016841F0400101600168EA
:100C500041F00801016010BD10B500F0C5F932483F
:100C60000078062808D03148016841F04001016051
:100C7000016841F00801016010BD10B500F0B4F941
:100C800029480078062808D02848016841F040012A
:100C90000160016841F00801016010BD70B5214C90
:100CA000608810B9E088022801D000F09DF923780F
:100CB00020482149214A0225802B02D0812B07D1CF
:100CC00002E0A38823B906E0194B1B78042BF8D067
:100CD00000F08AF901E008601580134801780629C0
:100CE00008D012490A6842F040020A6014490570AF
:100CF0000020088070BD0B4840780C2810D2DFE837
:100D000000F006070F080F090A0F0B0C0D0EC5E7C0
:100D1000B3E7A1E77CE745E716E7EEE6C5E6A9E617
:100D200000F062B95C0000204800002010880140FB
:100D30004900002032120000580000204E00002020
:100D400050000020BC110000AA1100002412000075
:100D50003D49888001200870704730B43A4C3B49C7
:100D60000020A2680B185D781554401C0728F9DB99
:100D70003748036843F0400303600B781D06354B8A
:100D800017D4CD88002165B13348D21D0260608838
:100D9000324AC01F1080324801800420187030BCD5
:100DA0007047026842F008020260197030BC0720E8
:100DB000CEE701201870F9E72A480078042801D00E
:100DC00000F012B92048007818B1224903200870B9
:100DD0007047C2E710B572B61B4A90605180002080
:100DE00010701C480078032801D1FFF7B6FF62B6E7
:100DF00010BD024672B61449087808B1898811807E
:100E000062B6704772B6184A1060184801801849D7
:100E1000002008800C4948700D48016841F04001ED
:100E200001600C490220087062B670470649C8800C
:100E3000012048707047024672B60349487808B1ED
:100E4000C988118062B670473C0000205C00002019
:100E50001088014048000020540000204A00002073
:100E60004C00002049000020580000204E000020C7
:100E7000500000207047B84810B502214170002191
:100E80000170B6480164016C41F00101016401691F
:100E900041F0010101610020FFF75AFFBDE8104059
:100EA0000020FFF7C3BF70470246AD4810B5036886
:100EB0008B4200D80168AA4B88B20146103304E087
:100EC0001C78401E02F8014B80B20028F8D1084679
:100ED00010BD2DE9F041A24F103F3868C0072AD05D
:100EE0009D4E9D4C1436F5886088854200D9054694
:100EF000A288A81A402800DB402081B2E068104494
:100F0000FFF7D2FFA188084480B24021A080A84208
:100F100002D14821002222703960217800290AD1AB
:100F20003178212901D0412905D1BDE8F041C01D0A
:100F300080B2FFF70DBFBDE8F08110B5402901D2A6
:100F40000A4608E040210A46854C10F8013B10345F
:100F50002370491E89B20029F6D1104610BD2DE933
:100F6000F0418007E7D47E4F103F386800F0010160
:100F7000C1F1000101EA0001C806DCD4764E764DCD
:100F80001436F488E888844200D904462A89A01AD5
:100F9000402800DB402081B228691044FFF7CDFFD4
:100FA0002989084480B202212881A04202D10A2165
:100FB00000222A70396029780029BCD13178A12912
:100FC00001D0C129B7D1BDE8F041FFF72FBFB2E78B
:100FD00063481038006860490978022902D0042962
:100FE00001D176E7BBE770475D481038016841F0F2
:100FF00020010160584906200870704770B55849B3
:1010000010390D68544C002004F114062278072A88
:1010100003D1524B72881A6020706A0705D50A689E
:1010200022F004020A60207070BDEA060ED50A683C
:1010300042F008020A600A6842F080020A602070EA
:101040000020FFF785FE0020FFF7F0FE2078E8B9CA
:10105000E807E9D0404808211430FFF725FF0828A9
:1010600003D000BFFFF7C0FF10E0307810F0600F32
:101070000AD0C0F34111022903D000F07F002128DB
:10108000F0D1FFF799FE01E0FFF735FE2078022846
:1010900004D00428C8D1BDE870401AE72846BDE84E
:1010A00070405CE72D4810B5046B016A046301626F
:1010B000C80701D0FFF7A2FF200701D5FFF788FF7F
:1010C000600702D5BDE81040D5E610BD2348D0F832
:1010D000001341F04001C0F800130021C0F80012D5
:1010E000D0F8002242F02002C0F80022D0F80022FE
:1010F00042F04002C0F800220165016D41F001019B
:101100000165016D41F002010165016D41F00401CD
:101110000165016D41F008010165016D41F4803107
:101120000165016E41F080010166016E21F0200130
:101130000166016E21F040010166016921F0100194
:101140000161D0F8001241F08001C0F80012054999
:101150000420086070470000480000200080014023
:101160002088014004E100E0064C074D06E0E068FD
:1011700040F0010394E8070098471034AC42F6D3DE
:10118000FEF7A8FF341200005412000002E008C865
:10119000121F08C1002AFAD170477047002001E0F1
:1011A00001C1121F002AFBD170471201000100008B
:1011B0000040C4108E8800010102000109021200E3
:1011C00001010080640904000000FE010200040324
:1011D00009043403530069006C00690063006F0068
:1011E0006E0020004C00610062006F007200610020
:1011F00074006F00720069006500730020004900F0
:101200006E0063002E001E034400460055002000BF
:1012100042006F006F0074006C006F00610064009A
:1012200065007200CE110000D2110000061200000D
:1012300001000000541200000000002064000000C3
:101240008C110000B8120000640000205804000057
:101250009C110000000000000000000000000000E1
:10126000000000000000000000000000000000007E
:10127000000000000000000000000000000000006E
:10128000000000000000000000000000000000005E
:10129000010100000000000000000000000000004C
:1012A000000000000000000000000000000000003E
:0812B000000000000000000036
:04000005000000CD2A
:00000001FF
