:020000040000FA
:102000000080002021220000292200002B22000055
:102010002D2200002F2200003122000000000000CD
:10202000000000000000000000000000332200005B
:10203000352200000000000037220000BD23000010
:102040003B2200003D2200003F22000075250000D9
:1020500043220000452200004722000049220000E0
:102060004B2200004D2200004F22000051220000B0
:102070005322000055220000572200005922000080
:102080005B2200005D2200005F2200006122000050
:102090006322000065220000672200006922000020
:1020A0006B2200006D2200006F22000071220000F0
:1020B00073220000752200007722000079220000C0
:1020C0007B2200007D2200007F2200008122000090
:1020D0008322000085220000872200008922000060
:1020E0008B2200008D2200008F2200009122000030
:1020F0006D25000095220000972200009922000023
:102100009B2200009D2200009F220000A1220000CF
:10211000A3220000A5220000DFF80CD000F0B6FAE0
:1021200000480047B12200000080002022490968D1
:1021300011F0807F13D02149096811F0010F0ED0F2
:102140001E498039096811F0010F08D000BF4FF017
:10215000604109680029FAD04FF060421070704762
:1021600070B504460D462046FFF7E0FF204670BDDF
:1021700010B5024600BF00BF4FF0FF31104B1B6887
:10218000104CA34204D00E4B196823460C4C23601C
:10219000084600BF411CEED010BD01464FF0FF3095
:1021A000704701460020704710B504462046FFF7EF
:1021B000BDFF10BD00BFFEE7FCED00E0800E00E0BB
:1021C00000000020A55AA55A10B51448006F10F061
:1021D000010F1FD01148006FC0F34000D0B90F4865
:1021E000006FC0F38000A8B94FF420004FF0E02149
:1021F0004861002088610520086100BF4FF0E020A1
:10220000006910F4803FF9D000204FF0E021086110
:102210004861886100F086F810BD704700D0024028
:102220002148804721480047FEE7FEE7FEE7FEE73A
:10223000FEE7FEE7FEE7FEE7FEE7FEE7FEE7FEE776
:10224000FEE7FEE7FEE7FEE7FEE7FEE7FEE7FEE766
:10225000FEE7FEE7FEE7FEE7FEE7FEE7FEE7FEE756
:10226000FEE7FEE7FEE7FEE7FEE7FEE7FEE7FEE746
:10227000FEE7FEE7FEE7FEE7FEE7FEE7FEE7FEE736
:10228000FEE7FEE7FEE7FEE7FEE7FEE7FEE7FEE726
:10229000FEE7FEE7FEE7FEE7FEE7FEE7FEE7FEE716
:1022A000FEE7FEE7FEE70000C9210000192100005B
:1022B000002400F0CFF82EE01748006884422AD2AC
:1022C0001548006800F59674144800686FEA00002D
:1022D00080B240F480301249C1F84C010F480068C8
:1022E0006FEA000080B240F40030C1F84C010846AB
:1022F000D0F8E0016FEA000080B240F08060C1F8E1
:10230000EC010846D0F8E0016FEA000080B240F02E
:102310000060C1F8EC01CFE71400002040A10240AA
:1023200000A0024000BFA52008490863DD20086323
:1023300000BF02200649486200BF08200549086026
:102340000549C1F8640100BF704700000000034068
:1023500000D0024084A1024000A0024000BFFEE77E
:1023600008200C49486100BF0A480069C0F3C0005A
:102370000028F9D10748006D00F2471005490862AE
:1023800005480068401C0449086001200149886133
:1023900070470000009002401000002010B5002897
:1023A00007DA0A07140E1E4A00F00F031B1FD4544D
:1023B00003E00A07130E1B4A135410BD1A480068A5
:1023C000401C19490860704710B518481849086042
:1023D000084600684FF47A71B0FBF1F4B4F1807FE5
:1023E00001D3012011E024F07F40401E4FF0E02196
:1023F00048610F214FF0FF30FFF7D0FF00204FF072
:10240000E021886107200861002010B109A000F0D8
:102410004FF90F214FF0FF30FFF7C0FF10BD000054
:1024200018ED00E000E400E014000020002D310170
:102430000C0000204552524F523A20537973546990
:10244000636B5F436F6E666967206661696C656484
:102450000A00000010B5FFF7B7FF00F038F810BD14
:1024600010B500F094F800F001F810BD00BF4FF671
:10247000FF70324908603249C1F8A4003149086050
:1024800000BF00BF304908602D49C1F844012F4901
:10249000086000BF00BF2E4908602949C1F8E40167
:1024A0002C49086000BF00BF47F6FF702A4908604A
:1024B0002349C1F824032949086000BF4FF00040B8
:1024C0001F4988644FF00200254988627047022046
:1024D0002349486200BF0820224908601849C1F812
:1024E000640100BF4FF000404864486300BF4FF0F4
:1024F00003001C4908601249C1F8640100BF00BF15
:102500004FF44060184908600D49C1F8040200BF4B
:1025100000BF4FF44040094908600949C1F8A400D0
:102520000849086000BF00BF4FF4C06001F104011A
:1025300008600349C1F8A40000BF7047E8A002404A
:1025400000A00240C4A0024088A1024064A1024051
:1025500028A2024004A2024068A3024044A3024011
:1025600000D0024084A1024024A2024010B5FFF72F
:10257000F5FE10BD10B54148006910F0010F01D003
:10258000FFF7EEFE3D4800693C48006910BD10B5FC
:102590004FF08070394988602C2000F066F80320E5
:1025A00000F063F82C2000F057F8032000F054F8F6
:1025B00002203249886080074860012030498863E2
:1025C00010BD10B501202E494863C0072B49486053
:1025D000800B486040038860801388600820486052
:1025E000C00348600220486000BF24480069C0F36F
:1025F00000200028F9D008202049486100BF1F486A
:102600000069C0F3C0000028F9D11C48006D00F239
:1026100047101A490862012088612C2000F025F833
:10262000032000F022F82C2000F00AF8032000F02C
:1026300007F84FF08070114948604001486010BDB4
:1026400000F01F020121914042094FF0E02303EB0B
:102650008202C2F80011704700F01F020121914070
:10266000084A430942F82310704700F01F02012175
:102670009140054A430942F82310704700900240F8
:1026800000D0024080E100E080E200E0064C074D0F
:1026900006E0E06840F0010394E807009847103432
:1026A000AC42F6D3FFF73CFD0027000010270000E6
:1026B000014A024900F013B8612100000400002023
:1026C00002E008C8121F08C1002AFAD170477047FB
:1026D000002001E001C1121F002AFBD170472DE943
:1026E000F04116460F460446002503E03946B04740
:1026F0006D1C641C20780028F8D12846BDE8F081C4
:10270000102700000000002018000000C026000074
:10271000A55AA55A0000000000000000002D31015C
:082720000000000000000000B1
:0400000500002119BD
:00000001FF
